{
  "contractName": "WarNFTDemo",
  "abi": [
    {
      "inputs": [],
      "stateMutability": "nonpayable",
      "type": "constructor"
    },
    {
      "anonymous": false,
      "inputs": [
        {
          "indexed": true,
          "internalType": "address",
          "name": "owner",
          "type": "address"
        },
        {
          "indexed": true,
          "internalType": "address",
          "name": "approved",
          "type": "address"
        },
        {
          "indexed": true,
          "internalType": "uint256",
          "name": "tokenId",
          "type": "uint256"
        }
      ],
      "name": "Approval",
      "type": "event"
    },
    {
      "anonymous": false,
      "inputs": [
        {
          "indexed": true,
          "internalType": "address",
          "name": "owner",
          "type": "address"
        },
        {
          "indexed": true,
          "internalType": "address",
          "name": "operator",
          "type": "address"
        },
        {
          "indexed": false,
          "internalType": "bool",
          "name": "approved",
          "type": "bool"
        }
      ],
      "name": "ApprovalForAll",
      "type": "event"
    },
    {
      "anonymous": false,
      "inputs": [
        {
          "indexed": true,
          "internalType": "address",
          "name": "previousOwner",
          "type": "address"
        },
        {
          "indexed": true,
          "internalType": "address",
          "name": "newOwner",
          "type": "address"
        }
      ],
      "name": "OwnershipTransferred",
      "type": "event"
    },
    {
      "anonymous": false,
      "inputs": [
        {
          "indexed": true,
          "internalType": "address",
          "name": "from",
          "type": "address"
        },
        {
          "indexed": true,
          "internalType": "address",
          "name": "to",
          "type": "address"
        },
        {
          "indexed": true,
          "internalType": "uint256",
          "name": "tokenId",
          "type": "uint256"
        }
      ],
      "name": "Transfer",
      "type": "event"
    },
    {
      "inputs": [
        {
          "internalType": "address",
          "name": "to",
          "type": "address"
        },
        {
          "internalType": "uint256",
          "name": "tokenId",
          "type": "uint256"
        }
      ],
      "name": "approve",
      "outputs": [],
      "stateMutability": "nonpayable",
      "type": "function"
    },
    {
      "inputs": [
        {
          "internalType": "address",
          "name": "owner",
          "type": "address"
        }
      ],
      "name": "balanceOf",
      "outputs": [
        {
          "internalType": "uint256",
          "name": "",
          "type": "uint256"
        }
      ],
      "stateMutability": "view",
      "type": "function"
    },
    {
      "inputs": [
        {
          "internalType": "string",
          "name": "",
          "type": "string"
        }
      ],
      "name": "codPets",
      "outputs": [
        {
          "internalType": "uint256",
          "name": "id",
          "type": "uint256"
        },
        {
          "internalType": "uint256",
          "name": "createdAt",
          "type": "uint256"
        },
        {
          "internalType": "bool",
          "name": "statusOwner",
          "type": "bool"
        },
        {
          "internalType": "bool",
          "name": "status",
          "type": "bool"
        }
      ],
      "stateMutability": "view",
      "type": "function"
    },
    {
      "inputs": [],
      "name": "counter",
      "outputs": [
        {
          "internalType": "uint256",
          "name": "",
          "type": "uint256"
        }
      ],
      "stateMutability": "view",
      "type": "function"
    },
    {
      "inputs": [
        {
          "internalType": "address",
          "name": "",
          "type": "address"
        }
      ],
      "name": "entityRegistering",
      "outputs": [
        {
          "internalType": "bool",
          "name": "",
          "type": "bool"
        }
      ],
      "stateMutability": "view",
      "type": "function"
    },
    {
      "inputs": [
        {
          "internalType": "uint256",
          "name": "",
          "type": "uint256"
        }
      ],
      "name": "filiationPets",
      "outputs": [
        {
          "internalType": "string",
          "name": "",
          "type": "string"
        }
      ],
      "stateMutability": "view",
      "type": "function"
    },
    {
      "inputs": [
        {
          "internalType": "uint256",
          "name": "tokenId",
          "type": "uint256"
        }
      ],
      "name": "getApproved",
      "outputs": [
        {
          "internalType": "address",
          "name": "",
          "type": "address"
        }
      ],
      "stateMutability": "view",
      "type": "function"
    },
    {
      "inputs": [
        {
          "internalType": "address",
          "name": "owner",
          "type": "address"
        },
        {
          "internalType": "address",
          "name": "operator",
          "type": "address"
        }
      ],
      "name": "isApprovedForAll",
      "outputs": [
        {
          "internalType": "bool",
          "name": "",
          "type": "bool"
        }
      ],
      "stateMutability": "view",
      "type": "function"
    },
    {
      "inputs": [],
      "name": "name",
      "outputs": [
        {
          "internalType": "string",
          "name": "",
          "type": "string"
        }
      ],
      "stateMutability": "view",
      "type": "function"
    },
    {
      "inputs": [],
      "name": "owner",
      "outputs": [
        {
          "internalType": "address",
          "name": "",
          "type": "address"
        }
      ],
      "stateMutability": "view",
      "type": "function"
    },
    {
      "inputs": [
        {
          "internalType": "uint256",
          "name": "tokenId",
          "type": "uint256"
        }
      ],
      "name": "ownerOf",
      "outputs": [
        {
          "internalType": "address",
          "name": "",
          "type": "address"
        }
      ],
      "stateMutability": "view",
      "type": "function"
    },
    {
      "inputs": [
        {
          "internalType": "uint256",
          "name": "",
          "type": "uint256"
        }
      ],
      "name": "path",
      "outputs": [
        {
          "internalType": "address",
          "name": "",
          "type": "address"
        }
      ],
      "stateMutability": "view",
      "type": "function"
    },
    {
      "inputs": [],
      "name": "price",
      "outputs": [
        {
          "internalType": "uint256",
          "name": "",
          "type": "uint256"
        }
      ],
      "stateMutability": "view",
      "type": "function"
    },
    {
      "inputs": [],
      "name": "renounceOwnership",
      "outputs": [],
      "stateMutability": "nonpayable",
      "type": "function"
    },
    {
      "inputs": [
        {
          "internalType": "address",
          "name": "from",
          "type": "address"
        },
        {
          "internalType": "address",
          "name": "to",
          "type": "address"
        },
        {
          "internalType": "uint256",
          "name": "tokenId",
          "type": "uint256"
        }
      ],
      "name": "safeTransferFrom",
      "outputs": [],
      "stateMutability": "nonpayable",
      "type": "function"
    },
    {
      "inputs": [
        {
          "internalType": "address",
          "name": "from",
          "type": "address"
        },
        {
          "internalType": "address",
          "name": "to",
          "type": "address"
        },
        {
          "internalType": "uint256",
          "name": "tokenId",
          "type": "uint256"
        },
        {
          "internalType": "bytes",
          "name": "_data",
          "type": "bytes"
        }
      ],
      "name": "safeTransferFrom",
      "outputs": [],
      "stateMutability": "nonpayable",
      "type": "function"
    },
    {
      "inputs": [
        {
          "internalType": "address",
          "name": "operator",
          "type": "address"
        },
        {
          "internalType": "bool",
          "name": "approved",
          "type": "bool"
        }
      ],
      "name": "setApprovalForAll",
      "outputs": [],
      "stateMutability": "nonpayable",
      "type": "function"
    },
    {
      "inputs": [
        {
          "internalType": "bytes4",
          "name": "interfaceId",
          "type": "bytes4"
        }
      ],
      "name": "supportsInterface",
      "outputs": [
        {
          "internalType": "bool",
          "name": "",
          "type": "bool"
        }
      ],
      "stateMutability": "view",
      "type": "function"
    },
    {
      "inputs": [],
      "name": "symbol",
      "outputs": [
        {
          "internalType": "string",
          "name": "",
          "type": "string"
        }
      ],
      "stateMutability": "view",
      "type": "function"
    },
    {
      "inputs": [],
      "name": "to",
      "outputs": [
        {
          "internalType": "address",
          "name": "",
          "type": "address"
        }
      ],
      "stateMutability": "view",
      "type": "function"
    },
    {
      "inputs": [
        {
          "internalType": "uint256",
          "name": "index",
          "type": "uint256"
        }
      ],
      "name": "tokenByIndex",
      "outputs": [
        {
          "internalType": "uint256",
          "name": "",
          "type": "uint256"
        }
      ],
      "stateMutability": "view",
      "type": "function"
    },
    {
      "inputs": [
        {
          "internalType": "address",
          "name": "owner",
          "type": "address"
        },
        {
          "internalType": "uint256",
          "name": "index",
          "type": "uint256"
        }
      ],
      "name": "tokenOfOwnerByIndex",
      "outputs": [
        {
          "internalType": "uint256",
          "name": "",
          "type": "uint256"
        }
      ],
      "stateMutability": "view",
      "type": "function"
    },
    {
      "inputs": [
        {
          "internalType": "uint256",
          "name": "tokenId",
          "type": "uint256"
        }
      ],
      "name": "tokenURI",
      "outputs": [
        {
          "internalType": "string",
          "name": "",
          "type": "string"
        }
      ],
      "stateMutability": "view",
      "type": "function"
    },
    {
      "inputs": [],
      "name": "totalSupply",
      "outputs": [
        {
          "internalType": "uint256",
          "name": "",
          "type": "uint256"
        }
      ],
      "stateMutability": "view",
      "type": "function"
    },
    {
      "inputs": [
        {
          "internalType": "address",
          "name": "from",
          "type": "address"
        },
        {
          "internalType": "address",
          "name": "to",
          "type": "address"
        },
        {
          "internalType": "uint256",
          "name": "tokenId",
          "type": "uint256"
        }
      ],
      "name": "transferFrom",
      "outputs": [],
      "stateMutability": "nonpayable",
      "type": "function"
    },
    {
      "inputs": [
        {
          "internalType": "address",
          "name": "newOwner",
          "type": "address"
        }
      ],
      "name": "transferOwnership",
      "outputs": [],
      "stateMutability": "nonpayable",
      "type": "function"
    },
    {
      "inputs": [
        {
          "internalType": "address",
          "name": "_address",
          "type": "address"
        }
      ],
      "name": "tokensOfOwner",
      "outputs": [
        {
          "internalType": "uint256[]",
          "name": "",
          "type": "uint256[]"
        }
      ],
      "stateMutability": "view",
      "type": "function"
    },
    {
      "inputs": [
        {
          "internalType": "uint256",
          "name": "_tokenId",
          "type": "uint256"
        }
      ],
      "name": "getOwnner",
      "outputs": [
        {
          "internalType": "string",
          "name": "",
          "type": "string"
        }
      ],
      "stateMutability": "view",
      "type": "function"
    },
    {
      "inputs": [
        {
          "internalType": "string",
          "name": "_codPets",
          "type": "string"
        },
        {
          "internalType": "string",
          "name": "_filiationPets",
          "type": "string"
        },
        {
          "internalType": "string",
          "name": "_ownerPets",
          "type": "string"
        },
        {
          "internalType": "bool",
          "name": "_ownerStatus",
          "type": "bool"
        },
        {
          "internalType": "uint256",
          "name": "_amountOut",
          "type": "uint256"
        },
        {
          "internalType": "uint256",
          "name": "amountInMax",
          "type": "uint256"
        }
      ],
      "name": "mintToken",
      "outputs": [],
      "stateMutability": "nonpayable",
      "type": "function"
    },
    {
      "inputs": [
        {
          "internalType": "uint256",
          "name": "_tokenId",
          "type": "uint256"
        },
        {
          "internalType": "string",
          "name": "_cod",
          "type": "string"
        },
        {
          "internalType": "bool",
          "name": "_ownerStatus",
          "type": "bool"
        }
      ],
      "name": "_setCodPets",
      "outputs": [],
      "stateMutability": "nonpayable",
      "type": "function"
    },
    {
      "inputs": [
        {
          "internalType": "uint256",
          "name": "_tokenId",
          "type": "uint256"
        },
        {
          "internalType": "string",
          "name": "_filiationPets",
          "type": "string"
        }
      ],
      "name": "setFiliationPets",
      "outputs": [],
      "stateMutability": "nonpayable",
      "type": "function"
    },
    {
      "inputs": [
        {
          "internalType": "uint256",
          "name": "_tokenId",
          "type": "uint256"
        },
        {
          "internalType": "string",
          "name": "_ownerPets",
          "type": "string"
        }
      ],
      "name": "setOwnerPets",
      "outputs": [],
      "stateMutability": "nonpayable",
      "type": "function"
    },
    {
      "inputs": [
        {
          "internalType": "address",
          "name": "_address",
          "type": "address"
        }
      ],
      "name": "editEntityRegistering",
      "outputs": [],
      "stateMutability": "nonpayable",
      "type": "function"
    },
    {
      "inputs": [
        {
          "internalType": "uint256",
          "name": "_price",
          "type": "uint256"
        }
      ],
      "name": "setPrice",
      "outputs": [],
      "stateMutability": "nonpayable",
      "type": "function"
    },
    {
      "inputs": [
        {
          "internalType": "address[]",
          "name": "_path",
          "type": "address[]"
        }
      ],
      "name": "setPath",
      "outputs": [],
      "stateMutability": "nonpayable",
      "type": "function"
    },
    {
      "inputs": [
        {
          "internalType": "address",
          "name": "_to",
          "type": "address"
        }
      ],
      "name": "setTo",
      "outputs": [],
      "stateMutability": "nonpayable",
      "type": "function"
    },
    {
      "inputs": [
        {
          "internalType": "string",
          "name": "baseURI_",
          "type": "string"
        }
      ],
      "name": "setBaseURI",
      "outputs": [],
      "stateMutability": "nonpayable",
      "type": "function"
    }
  ],
  "bytecode": "0x60806040526000600b55620f4240600c5573549ac9b1957010dc1971364f20b9efb7c90cf58a600d60006101000a81548173ffffffffffffffffffffffffffffffffffffffff021916908373ffffffffffffffffffffffffffffffffffffffff1602179055506040518060400160405280738a9424745056eb399fd19a0ec26a14316684e27473ffffffffffffffffffffffffffffffffffffffff1673ffffffffffffffffffffffffffffffffffffffff168152602001737ef95a0fee0dd31b22626fa2e10ee6a223f8a68473ffffffffffffffffffffffffffffffffffffffff1673ffffffffffffffffffffffffffffffffffffffff16815250600e9060026200010c929190620002fd565b506040518060400160405280601581526020017f68747470733a2f2f697066732e696f2f697066732f0000000000000000000000815250601490805190602001906200015a9291906200038c565b503480156200016857600080fd5b506040518060400160405280600881526020017f466972756c6169780000000000000000000000000000000000000000000000008152506040518060400160405280600481526020017f50455453000000000000000000000000000000000000000000000000000000008152508160009080519060200190620001ed9291906200038c565b508060019080519060200190620002069291906200038c565b505050620002296200021d6200022f60201b60201c565b6200023760201b60201c565b620004a1565b600033905090565b6000600a60009054906101000a900473ffffffffffffffffffffffffffffffffffffffff16905081600a60006101000a81548173ffffffffffffffffffffffffffffffffffffffff021916908373ffffffffffffffffffffffffffffffffffffffff1602179055508173ffffffffffffffffffffffffffffffffffffffff168173ffffffffffffffffffffffffffffffffffffffff167f8be0079c531659141344cd1fd0a4f28419497f9722a3daafe3b4186f6b6457e060405160405180910390a35050565b82805482825590600052602060002090810192821562000379579160200282015b82811115620003785782518260006101000a81548173ffffffffffffffffffffffffffffffffffffffff021916908373ffffffffffffffffffffffffffffffffffffffff160217905550916020019190600101906200031e565b5b5090506200038891906200041d565b5090565b8280546200039a906200043c565b90600052602060002090601f016020900481019282620003be57600085556200040a565b82601f10620003d957805160ff19168380011785556200040a565b828001600101855582156200040a579182015b8281111562000409578251825591602001919060010190620003ec565b5b5090506200041991906200041d565b5090565b5b80821115620004385760008160009055506001016200041e565b5090565b600060028204905060018216806200045557607f821691505b602082108114156200046c576200046b62000472565b5b50919050565b7f4e487b7100000000000000000000000000000000000000000000000000000000600052602260045260246000fd5b61504380620004b16000396000f3fe608060405234801561001057600080fd5b50600436106102275760003560e01c8063715018a611610130578063b88d4fde116100b8578063d175d3dd1161007c578063d175d3dd14610687578063d4cf7dc9146106b7578063e985e9c5146106d3578063f2fde38b14610703578063f7ae78181461071f57610227565b8063b88d4fde146105e7578063bddb75fd14610603578063c31c3f381461061f578063c87b56dd1461063b578063cd2552291461066b57610227565b806391b7f5ed116100ff57806391b7f5ed1461054357806395d89b411461055f578063a035b1fe1461057d578063a22cb4651461059b578063af6d1fe4146105b757610227565b8063715018a6146104cf57806377233e90146104d95780638462151c146104f55780638da5cb5b1461052557610227565b806342842e0e116101b357806361bc221a1161018257806361bc221a146104195780636352211e14610437578063686ca00d146104675780636d09c4ba1461048357806370a082311461049f57610227565b806342842e0e146103815780634f6ccce71461039d578063554bd339146103cd57806355f804b3146103fd57610227565b806313151981116101fa57806313151981146102c657806318160ddd146102e45780631a143ee91461030257806323b872dd146103355780632f745c591461035157610227565b806301ffc9a71461022c57806306fdde031461025c578063081812fc1461027a578063095ea7b3146102aa575b600080fd5b6102466004803603810190610241919061389e565b61074f565b60405161025391906140fe565b60405180910390f35b6102646107c9565b6040516102719190614119565b60405180910390f35b610294600480360381019061028f9190613a22565b61085b565b6040516102a19190614015565b60405180910390f35b6102c460048036038101906102bf919061379f565b6108e0565b005b6102ce6109f8565b6040516102db9190614015565b60405180910390f35b6102ec610a1e565b6040516102f991906143db565b60405180910390f35b61031c600480360381019061031791906138f8565b610a2b565b60405161032c9493929190614450565b60405180910390f35b61034f600480360381019061034a9190613689565b610a8b565b005b61036b6004803603810190610366919061379f565b610aeb565b60405161037891906143db565b60405180910390f35b61039b60048036038101906103969190613689565b610b90565b005b6103b760048036038101906103b29190613a22565b610bb0565b6040516103c491906143db565b60405180910390f35b6103e760048036038101906103e29190613a22565b610c21565b6040516103f49190614119565b60405180910390f35b610417600480360381019061041291906138f8565b610da0565b005b610421610e36565b60405161042e91906143db565b60405180910390f35b610451600480360381019061044c9190613a22565b610e3c565b60405161045e9190614015565b60405180910390f35b610481600480360381019061047c91906137df565b610eee565b005b61049d60048036038101906104989190613941565b61105f565b005b6104b960048036038101906104b4919061361c565b6111b6565b6040516104c691906143db565b60405180910390f35b6104d761126e565b005b6104f360048036038101906104ee919061361c565b6112f6565b005b61050f600480360381019061050a919061361c565b6113b6565b60405161051c91906140dc565b60405180910390f35b61052d611464565b60405161053a9190614015565b60405180910390f35b61055d60048036038101906105589190613a22565b61148e565b005b610567611514565b6040516105749190614119565b60405180910390f35b6105856115a6565b60405161059291906143db565b60405180910390f35b6105b560048036038101906105b0919061375f565b6115ac565b005b6105d160048036038101906105cc9190613a22565b6115c2565b6040516105de9190614015565b60405180910390f35b61060160048036038101906105fc91906136dc565b611601565b005b61061d60048036038101906106189190613aab565b611663565b005b6106396004803603810190610634919061361c565b6117dd565b005b61065560048036038101906106509190613a22565b611900565b6040516106629190614119565b60405180910390f35b61068560048036038101906106809190613a4f565b6119a7565b005b6106a1600480360381019061069c9190613a22565b611aad565b6040516106ae9190614119565b60405180910390f35b6106d160048036038101906106cc9190613a4f565b611b4d565b005b6106ed60048036038101906106e89190613649565b611c53565b6040516106fa91906140fe565b60405180910390f35b61071d6004803603810190610718919061361c565b611ce7565b005b6107396004803603810190610734919061361c565b611ddf565b60405161074691906140fe565b60405180910390f35b60007f780e9d63000000000000000000000000000000000000000000000000000000007bffffffffffffffffffffffffffffffffffffffffffffffffffffffff1916827bffffffffffffffffffffffffffffffffffffffffffffffffffffffff191614806107c257506107c182611dff565b5b9050919050565b6060600080546107d8906147bf565b80601f0160208091040260200160405190810160405280929190818152602001828054610804906147bf565b80156108515780601f1061082657610100808354040283529160200191610851565b820191906000526020600020905b81548152906001019060200180831161083457829003601f168201915b5050505050905090565b600061086682611ee1565b6108a5576040517f08c379a000000000000000000000000000000000000000000000000000000000815260040161089c906142bb565b60405180910390fd5b6004600083815260200190815260200160002060009054906101000a900473ffffffffffffffffffffffffffffffffffffffff169050919050565b60006108eb82610e3c565b90508073ffffffffffffffffffffffffffffffffffffffff168373ffffffffffffffffffffffffffffffffffffffff16141561095c576040517f08c379a00000000000000000000000000000000000000000000000000000000081526004016109539061437b565b60405180910390fd5b8073ffffffffffffffffffffffffffffffffffffffff1661097b611f4d565b73ffffffffffffffffffffffffffffffffffffffff1614806109aa57506109a9816109a4611f4d565b611c53565b5b6109e9576040517f08c379a00000000000000000000000000000000000000000000000000000000081526004016109e09061423b565b60405180910390fd5b6109f38383611f55565b505050565b600d60009054906101000a900473ffffffffffffffffffffffffffffffffffffffff1681565b6000600880549050905090565b600f818051602081018201805184825260208301602085012081835280955050505050506000915090508060000154908060010154908060020160009054906101000a900460ff16908060020160019054906101000a900460ff16905084565b610a9c610a96611f4d565b8261200e565b610adb576040517f08c379a0000000000000000000000000000000000000000000000000000000008152600401610ad29061439b565b60405180910390fd5b610ae68383836120ec565b505050565b6000610af6836111b6565b8210610b37576040517f08c379a0000000000000000000000000000000000000000000000000000000008152600401610b2e9061413b565b60405180910390fd5b600660008473ffffffffffffffffffffffffffffffffffffffff1673ffffffffffffffffffffffffffffffffffffffff168152602001908152602001600020600083815260200190815260200160002054905092915050565b610bab83838360405180602001604052806000815250611601565b505050565b6000610bba610a1e565b8210610bfb576040517f08c379a0000000000000000000000000000000000000000000000000000000008152600401610bf2906143bb565b60405180910390fd5b60088281548110610c0f57610c0e614972565b5b90600052602060002001549050919050565b60606000601560003373ffffffffffffffffffffffffffffffffffffffff1673ffffffffffffffffffffffffffffffffffffffff16815260200190815260200160002060009054906101000a900460ff169050610c7d83611ee1565b610cbc576040517f08c379a0000000000000000000000000000000000000000000000000000000008152600401610cb3906142db565b60405180910390fd5b80610cfc576040517f08c379a0000000000000000000000000000000000000000000000000000000008152600401610cf39061435b565b60405180910390fd5b601160008481526020019081526020016000208054610d1a906147bf565b80601f0160208091040260200160405190810160405280929190818152602001828054610d46906147bf565b8015610d935780601f10610d6857610100808354040283529160200191610d93565b820191906000526020600020905b815481529060010190602001808311610d7657829003601f168201915b5050505050915050919050565b610da8611f4d565b73ffffffffffffffffffffffffffffffffffffffff16610dc6611464565b73ffffffffffffffffffffffffffffffffffffffff1614610e1c576040517f08c379a0000000000000000000000000000000000000000000000000000000008152600401610e13906142fb565b60405180910390fd5b8060149080519060200190610e329291906132ca565b5050565b600b5481565b6000806002600084815260200190815260200160002060009054906101000a900473ffffffffffffffffffffffffffffffffffffffff169050600073ffffffffffffffffffffffffffffffffffffffff168173ffffffffffffffffffffffffffffffffffffffff161415610ee5576040517f08c379a0000000000000000000000000000000000000000000000000000000008152600401610edc9061427b565b60405180910390fd5b80915050919050565b610ef6611f4d565b73ffffffffffffffffffffffffffffffffffffffff16610f14611464565b73ffffffffffffffffffffffffffffffffffffffff1614610f6a576040517f08c379a0000000000000000000000000000000000000000000000000000000008152600401610f61906142fb565b60405180910390fd5b80600081518110610f7e57610f7d614972565b5b6020026020010151600e600081548110610f9b57610f9a614972565b5b9060005260206000200160006101000a81548173ffffffffffffffffffffffffffffffffffffffff021916908373ffffffffffffffffffffffffffffffffffffffff16021790555080600181518110610ff757610ff6614972565b5b6020026020010151600e60018154811061101457611013614972565b5b9060005260206000200160006101000a81548173ffffffffffffffffffffffffffffffffffffffff021916908373ffffffffffffffffffffffffffffffffffffffff16021790555050565b6000601560003373ffffffffffffffffffffffffffffffffffffffff1673ffffffffffffffffffffffffffffffffffffffff16815260200190815260200160002060009054906101000a900460ff1690506000600f886040516110c29190613fda565b908152602001604051809103902060000154905081611116576040517f08c379a000000000000000000000000000000000000000000000000000000000815260040161110d9061435b565b60405180910390fd5b60008114611159576040517f08c379a0000000000000000000000000000000000000000000000000000000008152600401611150906141bb565b60405180910390fd5b6111638484612348565b61116f33600b546125ce565b61117c600b548987611663565b611188600b54886119a7565b611194600b5487611b4d565b600b60008154809291906111a79061483c565b91905055505050505050505050565b60008073ffffffffffffffffffffffffffffffffffffffff168273ffffffffffffffffffffffffffffffffffffffff161415611227576040517f08c379a000000000000000000000000000000000000000000000000000000000815260040161121e9061425b565b60405180910390fd5b600360008373ffffffffffffffffffffffffffffffffffffffff1673ffffffffffffffffffffffffffffffffffffffff168152602001908152602001600020549050919050565b611276611f4d565b73ffffffffffffffffffffffffffffffffffffffff16611294611464565b73ffffffffffffffffffffffffffffffffffffffff16146112ea576040517f08c379a00000000000000000000000000000000000000000000000000000000081526004016112e1906142fb565b60405180910390fd5b6112f460006125ec565b565b6112fe611f4d565b73ffffffffffffffffffffffffffffffffffffffff1661131c611464565b73ffffffffffffffffffffffffffffffffffffffff1614611372576040517f08c379a0000000000000000000000000000000000000000000000000000000008152600401611369906142fb565b60405180910390fd5b80600d60006101000a81548173ffffffffffffffffffffffffffffffffffffffff021916908373ffffffffffffffffffffffffffffffffffffffff16021790555050565b606060006113c3836111b6565b905060008167ffffffffffffffff8111156113e1576113e06149a1565b5b60405190808252806020026020018201604052801561140f5781602001602082028036833780820191505090505b50905060005b82811015611459576114278582610aeb565b82828151811061143a57611439614972565b5b60200260200101818152505080806114519061483c565b915050611415565b508092505050919050565b6000600a60009054906101000a900473ffffffffffffffffffffffffffffffffffffffff16905090565b611496611f4d565b73ffffffffffffffffffffffffffffffffffffffff166114b4611464565b73ffffffffffffffffffffffffffffffffffffffff161461150a576040517f08c379a0000000000000000000000000000000000000000000000000000000008152600401611501906142fb565b60405180910390fd5b80600c8190555050565b606060018054611523906147bf565b80601f016020809104026020016040519081016040528092919081815260200182805461154f906147bf565b801561159c5780601f106115715761010080835404028352916020019161159c565b820191906000526020600020905b81548152906001019060200180831161157f57829003601f168201915b5050505050905090565b600c5481565b6115be6115b7611f4d565b83836126b2565b5050565b600e81815481106115d257600080fd5b906000526020600020016000915054906101000a900473ffffffffffffffffffffffffffffffffffffffff1681565b61161261160c611f4d565b8361200e565b611651576040517f08c379a00000000000000000000000000000000000000000000000000000000081526004016116489061439b565b60405180910390fd5b61165d8484848461281f565b50505050565b6000601560003373ffffffffffffffffffffffffffffffffffffffff1673ffffffffffffffffffffffffffffffffffffffff16815260200190815260200160002060009054906101000a900460ff1690506116bd84611ee1565b6116fc576040517f08c379a00000000000000000000000000000000000000000000000000000000081526004016116f3906142db565b60405180910390fd5b8061173c576040517f08c379a00000000000000000000000000000000000000000000000000000000081526004016117339061435b565b60405180910390fd5b6040518060800160405280858152602001428152602001831515815260200160011515815250600f846040516117729190613fda565b9081526020016040518091039020600082015181600001556020820151816001015560408201518160020160006101000a81548160ff02191690831515021790555060608201518160020160016101000a81548160ff02191690831515021790555090505050505050565b6117e5611f4d565b73ffffffffffffffffffffffffffffffffffffffff16611803611464565b73ffffffffffffffffffffffffffffffffffffffff1614611859576040517f08c379a0000000000000000000000000000000000000000000000000000000008152600401611850906142fb565b60405180910390fd5b601560008273ffffffffffffffffffffffffffffffffffffffff1673ffffffffffffffffffffffffffffffffffffffff16815260200190815260200160002060009054906101000a900460ff1615601560008373ffffffffffffffffffffffffffffffffffffffff1673ffffffffffffffffffffffffffffffffffffffff16815260200190815260200160002060006101000a81548160ff02191690831515021790555050565b606061190b82611ee1565b61194a576040517f08c379a00000000000000000000000000000000000000000000000000000000081526004016119419061433b565b60405180910390fd5b600061195461287b565b90506000815111611974576040518060200160405280600081525061199f565b8061197e8461290d565b60405160200161198f929190613ff1565b6040516020818303038152906040525b915050919050565b6000601560003373ffffffffffffffffffffffffffffffffffffffff1673ffffffffffffffffffffffffffffffffffffffff16815260200190815260200160002060009054906101000a900460ff169050611a0183611ee1565b611a40576040517f08c379a0000000000000000000000000000000000000000000000000000000008152600401611a37906142db565b60405180910390fd5b80611a80576040517f08c379a0000000000000000000000000000000000000000000000000000000008152600401611a779061435b565b60405180910390fd5b81601060008581526020019081526020016000209080519060200190611aa79291906132ca565b50505050565b60106020528060005260406000206000915090508054611acc906147bf565b80601f0160208091040260200160405190810160405280929190818152602001828054611af8906147bf565b8015611b455780601f10611b1a57610100808354040283529160200191611b45565b820191906000526020600020905b815481529060010190602001808311611b2857829003601f168201915b505050505081565b6000601560003373ffffffffffffffffffffffffffffffffffffffff1673ffffffffffffffffffffffffffffffffffffffff16815260200190815260200160002060009054906101000a900460ff169050611ba783611ee1565b611be6576040517f08c379a0000000000000000000000000000000000000000000000000000000008152600401611bdd906142db565b60405180910390fd5b80611c26576040517f08c379a0000000000000000000000000000000000000000000000000000000008152600401611c1d9061435b565b60405180910390fd5b81601160008581526020019081526020016000209080519060200190611c4d9291906132ca565b50505050565b6000600560008473ffffffffffffffffffffffffffffffffffffffff1673ffffffffffffffffffffffffffffffffffffffff16815260200190815260200160002060008373ffffffffffffffffffffffffffffffffffffffff1673ffffffffffffffffffffffffffffffffffffffff16815260200190815260200160002060009054906101000a900460ff16905092915050565b611cef611f4d565b73ffffffffffffffffffffffffffffffffffffffff16611d0d611464565b73ffffffffffffffffffffffffffffffffffffffff1614611d63576040517f08c379a0000000000000000000000000000000000000000000000000000000008152600401611d5a906142fb565b60405180910390fd5b600073ffffffffffffffffffffffffffffffffffffffff168173ffffffffffffffffffffffffffffffffffffffff161415611dd3576040517f08c379a0000000000000000000000000000000000000000000000000000000008152600401611dca9061417b565b60405180910390fd5b611ddc816125ec565b50565b60156020528060005260406000206000915054906101000a900460ff1681565b60007f80ac58cd000000000000000000000000000000000000000000000000000000007bffffffffffffffffffffffffffffffffffffffffffffffffffffffff1916827bffffffffffffffffffffffffffffffffffffffffffffffffffffffff19161480611eca57507f5b5e139f000000000000000000000000000000000000000000000000000000007bffffffffffffffffffffffffffffffffffffffffffffffffffffffff1916827bffffffffffffffffffffffffffffffffffffffffffffffffffffffff1916145b80611eda5750611ed982612a6e565b5b9050919050565b60008073ffffffffffffffffffffffffffffffffffffffff166002600084815260200190815260200160002060009054906101000a900473ffffffffffffffffffffffffffffffffffffffff1673ffffffffffffffffffffffffffffffffffffffff1614159050919050565b600033905090565b816004600083815260200190815260200160002060006101000a81548173ffffffffffffffffffffffffffffffffffffffff021916908373ffffffffffffffffffffffffffffffffffffffff160217905550808273ffffffffffffffffffffffffffffffffffffffff16611fc883610e3c565b73ffffffffffffffffffffffffffffffffffffffff167f8c5be1e5ebec7d5bd14f71427d1e84f3dd0314c0f7b2291e5b200ac8c7c3b92560405160405180910390a45050565b600061201982611ee1565b612058576040517f08c379a000000000000000000000000000000000000000000000000000000000815260040161204f9061421b565b60405180910390fd5b600061206383610e3c565b90508073ffffffffffffffffffffffffffffffffffffffff168473ffffffffffffffffffffffffffffffffffffffff1614806120d257508373ffffffffffffffffffffffffffffffffffffffff166120ba8461085b565b73ffffffffffffffffffffffffffffffffffffffff16145b806120e357506120e28185611c53565b5b91505092915050565b8273ffffffffffffffffffffffffffffffffffffffff1661210c82610e3c565b73ffffffffffffffffffffffffffffffffffffffff1614612162576040517f08c379a00000000000000000000000000000000000000000000000000000000081526004016121599061431b565b60405180910390fd5b600073ffffffffffffffffffffffffffffffffffffffff168273ffffffffffffffffffffffffffffffffffffffff1614156121d2576040517f08c379a00000000000000000000000000000000000000000000000000000000081526004016121c9906141db565b60405180910390fd5b6121dd838383612ad8565b6121e8600082611f55565b6001600360008573ffffffffffffffffffffffffffffffffffffffff1673ffffffffffffffffffffffffffffffffffffffff168152602001908152602001600020600082825461223891906146b5565b925050819055506001600360008473ffffffffffffffffffffffffffffffffffffffff1673ffffffffffffffffffffffffffffffffffffffff168152602001908152602001600020600082825461228f919061462e565b92505081905550816002600083815260200190815260200160002060006101000a81548173ffffffffffffffffffffffffffffffffffffffff021916908373ffffffffffffffffffffffffffffffffffffffff160217905550808273ffffffffffffffffffffffffffffffffffffffff168473ffffffffffffffffffffffffffffffffffffffff167fddf252ad1be2c89b69c2b068fc378daa952ba7f163c4a11628f55a4df523b3ef60405160405180910390a4505050565b600e60008154811061235d5761235c614972565b5b9060005260206000200160009054906101000a900473ffffffffffffffffffffffffffffffffffffffff1673ffffffffffffffffffffffffffffffffffffffff166323b872dd3330856040518463ffffffff1660e01b81526004016123c493929190614030565b602060405180830381600087803b1580156123de57600080fd5b505af11580156123f2573d6000803e3d6000fd5b505050506040513d601f19601f820116820180604052508101906124169190613871565b50600e60008154811061242c5761242b614972565b5b9060005260206000200160009054906101000a900473ffffffffffffffffffffffffffffffffffffffff1673ffffffffffffffffffffffffffffffffffffffff1663095ea7b3739ac64cc6e4415144c455bd8e4837fea55603e5c3846040518363ffffffff1660e01b81526004016124a59291906140b3565b602060405180830381600087803b1580156124bf57600080fd5b505af11580156124d3573d6000803e3d6000fd5b505050506040513d601f19601f820116820180604052508101906124f79190613871565b50739ac64cc6e4415144c455bd8e4837fea55603e5c373ffffffffffffffffffffffffffffffffffffffff16638803dbee600c5483600e600d60009054906101000a900473ffffffffffffffffffffffffffffffffffffffff16426040518663ffffffff1660e01b81526004016125729594939291906143f6565b600060405180830381600087803b15801561258c57600080fd5b505af11580156125a0573d6000803e3d6000fd5b505050506040513d6000823e3d601f19601f820116820180604052508101906125c99190613828565b505050565b6125e8828260405180602001604052806000815250612bec565b5050565b6000600a60009054906101000a900473ffffffffffffffffffffffffffffffffffffffff16905081600a60006101000a81548173ffffffffffffffffffffffffffffffffffffffff021916908373ffffffffffffffffffffffffffffffffffffffff1602179055508173ffffffffffffffffffffffffffffffffffffffff168173ffffffffffffffffffffffffffffffffffffffff167f8be0079c531659141344cd1fd0a4f28419497f9722a3daafe3b4186f6b6457e060405160405180910390a35050565b8173ffffffffffffffffffffffffffffffffffffffff168373ffffffffffffffffffffffffffffffffffffffff161415612721576040517f08c379a0000000000000000000000000000000000000000000000000000000008152600401612718906141fb565b60405180910390fd5b80600560008573ffffffffffffffffffffffffffffffffffffffff1673ffffffffffffffffffffffffffffffffffffffff16815260200190815260200160002060008473ffffffffffffffffffffffffffffffffffffffff1673ffffffffffffffffffffffffffffffffffffffff16815260200190815260200160002060006101000a81548160ff0219169083151502179055508173ffffffffffffffffffffffffffffffffffffffff168373ffffffffffffffffffffffffffffffffffffffff167f17307eab39ab6107e8899845ad3d59bd9653f200f220920489ca2b5937696c318360405161281291906140fe565b60405180910390a3505050565b61282a8484846120ec565b61283684848484612c47565b612875576040517f08c379a000000000000000000000000000000000000000000000000000000000815260040161286c9061415b565b60405180910390fd5b50505050565b60606014805461288a906147bf565b80601f01602080910402602001604051908101604052809291908181526020018280546128b6906147bf565b80156129035780601f106128d857610100808354040283529160200191612903565b820191906000526020600020905b8154815290600101906020018083116128e657829003601f168201915b5050505050905090565b60606000821415612955576040518060400160405280600181526020017f30000000000000000000000000000000000000000000000000000000000000008152509050612a69565b600082905060005b600082146129875780806129709061483c565b915050600a826129809190614684565b915061295d565b60008167ffffffffffffffff8111156129a3576129a26149a1565b5b6040519080825280601f01601f1916602001820160405280156129d55781602001600182028036833780820191505090505b5090505b60008514612a62576001826129ee91906146b5565b9150600a856129fd9190614885565b6030612a09919061462e565b60f81b818381518110612a1f57612a1e614972565b5b60200101907effffffffffffffffffffffffffffffffffffffffffffffffffffffffffffff1916908160001a905350600a85612a5b9190614684565b94506129d9565b8093505050505b919050565b60007f01ffc9a7000000000000000000000000000000000000000000000000000000007bffffffffffffffffffffffffffffffffffffffffffffffffffffffff1916827bffffffffffffffffffffffffffffffffffffffffffffffffffffffff1916149050919050565b612ae3838383612dde565b600073ffffffffffffffffffffffffffffffffffffffff168373ffffffffffffffffffffffffffffffffffffffff161415612b2657612b2181612de3565b612b65565b8173ffffffffffffffffffffffffffffffffffffffff168373ffffffffffffffffffffffffffffffffffffffff1614612b6457612b638382612e2c565b5b5b600073ffffffffffffffffffffffffffffffffffffffff168273ffffffffffffffffffffffffffffffffffffffff161415612ba857612ba381612f99565b612be7565b8273ffffffffffffffffffffffffffffffffffffffff168273ffffffffffffffffffffffffffffffffffffffff1614612be657612be5828261306a565b5b5b505050565b612bf683836130e9565b612c036000848484612c47565b612c42576040517f08c379a0000000000000000000000000000000000000000000000000000000008152600401612c399061415b565b60405180910390fd5b505050565b6000612c688473ffffffffffffffffffffffffffffffffffffffff166132b7565b15612dd1578373ffffffffffffffffffffffffffffffffffffffff1663150b7a02612c91611f4d565b8786866040518563ffffffff1660e01b8152600401612cb39493929190614067565b602060405180830381600087803b158015612ccd57600080fd5b505af1925050508015612cfe57506040513d601f19601f82011682018060405250810190612cfb91906138cb565b60015b612d81573d8060008114612d2e576040519150601f19603f3d011682016040523d82523d6000602084013e612d33565b606091505b50600081511415612d79576040517f08c379a0000000000000000000000000000000000000000000000000000000008152600401612d709061415b565b60405180910390fd5b805181602001fd5b63150b7a0260e01b7bffffffffffffffffffffffffffffffffffffffffffffffffffffffff1916817bffffffffffffffffffffffffffffffffffffffffffffffffffffffff191614915050612dd6565b600190505b949350505050565b505050565b6008805490506009600083815260200190815260200160002081905550600881908060018154018082558091505060019003906000526020600020016000909190919091505550565b60006001612e39846111b6565b612e4391906146b5565b9050600060076000848152602001908152602001600020549050818114612f28576000600660008673ffffffffffffffffffffffffffffffffffffffff1673ffffffffffffffffffffffffffffffffffffffff168152602001908152602001600020600084815260200190815260200160002054905080600660008773ffffffffffffffffffffffffffffffffffffffff1673ffffffffffffffffffffffffffffffffffffffff168152602001908152602001600020600084815260200190815260200160002081905550816007600083815260200190815260200160002081905550505b6007600084815260200190815260200160002060009055600660008573ffffffffffffffffffffffffffffffffffffffff1673ffffffffffffffffffffffffffffffffffffffff16815260200190815260200160002060008381526020019081526020016000206000905550505050565b60006001600880549050612fad91906146b5565b9050600060096000848152602001908152602001600020549050600060088381548110612fdd57612fdc614972565b5b906000526020600020015490508060088381548110612fff57612ffe614972565b5b90600052602060002001819055508160096000838152602001908152602001600020819055506009600085815260200190815260200160002060009055600880548061304e5761304d614943565b5b6001900381819060005260206000200160009055905550505050565b6000613075836111b6565b905081600660008573ffffffffffffffffffffffffffffffffffffffff1673ffffffffffffffffffffffffffffffffffffffff168152602001908152602001600020600083815260200190815260200160002081905550806007600084815260200190815260200160002081905550505050565b600073ffffffffffffffffffffffffffffffffffffffff168273ffffffffffffffffffffffffffffffffffffffff161415613159576040517f08c379a00000000000000000000000000000000000000000000000000000000081526004016131509061429b565b60405180910390fd5b61316281611ee1565b156131a2576040517f08c379a00000000000000000000000000000000000000000000000000000000081526004016131999061419b565b60405180910390fd5b6131ae60008383612ad8565b6001600360008473ffffffffffffffffffffffffffffffffffffffff1673ffffffffffffffffffffffffffffffffffffffff16815260200190815260200160002060008282546131fe919061462e565b92505081905550816002600083815260200190815260200160002060006101000a81548173ffffffffffffffffffffffffffffffffffffffff021916908373ffffffffffffffffffffffffffffffffffffffff160217905550808273ffffffffffffffffffffffffffffffffffffffff16600073ffffffffffffffffffffffffffffffffffffffff167fddf252ad1be2c89b69c2b068fc378daa952ba7f163c4a11628f55a4df523b3ef60405160405180910390a45050565b600080823b905060008111915050919050565b8280546132d6906147bf565b90600052602060002090601f0160209004810192826132f8576000855561333f565b82601f1061331157805160ff191683800117855561333f565b8280016001018555821561333f579182015b8281111561333e578251825591602001919060010190613323565b5b50905061334c9190613350565b5090565b5b80821115613369576000816000905550600101613351565b5090565b600061338061337b846144ba565b614495565b905080838252602082019050828560208602820111156133a3576133a26149e8565b5b60005b858110156133d357816133b988826134d1565b8452602084019350602083019250506001810190506133a6565b5050509392505050565b60006133f06133eb846144e6565b614495565b90508083825260208201905082856020860282011115613413576134126149e8565b5b60005b8581101561344357816134298882613607565b845260208401935060208301925050600181019050613416565b5050509392505050565b600061346061345b84614512565b614495565b90508281526020810184848401111561347c5761347b6149ed565b5b61348784828561477d565b509392505050565b60006134a261349d84614543565b614495565b9050828152602081018484840111156134be576134bd6149ed565b5b6134c984828561477d565b509392505050565b6000813590506134e081614fb1565b92915050565b600082601f8301126134fb576134fa6149e3565b5b813561350b84826020860161336d565b91505092915050565b600082601f830112613529576135286149e3565b5b81516135398482602086016133dd565b91505092915050565b60008135905061355181614fc8565b92915050565b60008151905061356681614fc8565b92915050565b60008135905061357b81614fdf565b92915050565b60008151905061359081614fdf565b92915050565b600082601f8301126135ab576135aa6149e3565b5b81356135bb84826020860161344d565b91505092915050565b600082601f8301126135d9576135d86149e3565b5b81356135e984826020860161348f565b91505092915050565b60008135905061360181614ff6565b92915050565b60008151905061361681614ff6565b92915050565b600060208284031215613632576136316149f7565b5b6000613640848285016134d1565b91505092915050565b600080604083850312156136605761365f6149f7565b5b600061366e858286016134d1565b925050602061367f858286016134d1565b9150509250929050565b6000806000606084860312156136a2576136a16149f7565b5b60006136b0868287016134d1565b93505060206136c1868287016134d1565b92505060406136d2868287016135f2565b9150509250925092565b600080600080608085870312156136f6576136f56149f7565b5b6000613704878288016134d1565b9450506020613715878288016134d1565b9350506040613726878288016135f2565b925050606085013567ffffffffffffffff811115613747576137466149f2565b5b61375387828801613596565b91505092959194509250565b60008060408385031215613776576137756149f7565b5b6000613784858286016134d1565b925050602061379585828601613542565b9150509250929050565b600080604083850312156137b6576137b56149f7565b5b60006137c4858286016134d1565b92505060206137d5858286016135f2565b9150509250929050565b6000602082840312156137f5576137f46149f7565b5b600082013567ffffffffffffffff811115613813576138126149f2565b5b61381f848285016134e6565b91505092915050565b60006020828403121561383e5761383d6149f7565b5b600082015167ffffffffffffffff81111561385c5761385b6149f2565b5b61386884828501613514565b91505092915050565b600060208284031215613887576138866149f7565b5b600061389584828501613557565b91505092915050565b6000602082840312156138b4576138b36149f7565b5b60006138c28482850161356c565b91505092915050565b6000602082840312156138e1576138e06149f7565b5b60006138ef84828501613581565b91505092915050565b60006020828403121561390e5761390d6149f7565b5b600082013567ffffffffffffffff81111561392c5761392b6149f2565b5b613938848285016135c4565b91505092915050565b60008060008060008060c0878903121561395e5761395d6149f7565b5b600087013567ffffffffffffffff81111561397c5761397b6149f2565b5b61398889828a016135c4565b965050602087013567ffffffffffffffff8111156139a9576139a86149f2565b5b6139b589828a016135c4565b955050604087013567ffffffffffffffff8111156139d6576139d56149f2565b5b6139e289828a016135c4565b94505060606139f389828a01613542565b9350506080613a0489828a016135f2565b92505060a0613a1589828a016135f2565b9150509295509295509295565b600060208284031215613a3857613a376149f7565b5b6000613a46848285016135f2565b91505092915050565b60008060408385031215613a6657613a656149f7565b5b6000613a74858286016135f2565b925050602083013567ffffffffffffffff811115613a9557613a946149f2565b5b613aa1858286016135c4565b9150509250929050565b600080600060608486031215613ac457613ac36149f7565b5b6000613ad2868287016135f2565b935050602084013567ffffffffffffffff811115613af357613af26149f2565b5b613aff868287016135c4565b9250506040613b1086828701613542565b9150509250925092565b6000613b268383613b4a565b60208301905092915050565b6000613b3e8383613fbc565b60208301905092915050565b613b5381614709565b82525050565b613b6281614709565b82525050565b6000613b7382614599565b613b7d81856145df565b9350613b8883614574565b8060005b83811015613bc057613b9d826149d0565b613ba78882613b1a565b9750613bb2836145c5565b925050600181019050613b8c565b5085935050505092915050565b6000613bd8826145a4565b613be281856145f0565b9350613bed83614589565b8060005b83811015613c1e578151613c058882613b32565b9750613c10836145d2565b925050600181019050613bf1565b5085935050505092915050565b613c348161471b565b82525050565b6000613c45826145af565b613c4f8185614601565b9350613c5f81856020860161478c565b613c68816149fc565b840191505092915050565b6000613c7e826145ba565b613c888185614612565b9350613c9881856020860161478c565b613ca1816149fc565b840191505092915050565b6000613cb7826145ba565b613cc18185614623565b9350613cd181856020860161478c565b80840191505092915050565b6000613cea602b83614612565b9150613cf582614a1a565b604082019050919050565b6000613d0d603283614612565b9150613d1882614a69565b604082019050919050565b6000613d30602683614612565b9150613d3b82614ab8565b604082019050919050565b6000613d53601c83614612565b9150613d5e82614b07565b602082019050919050565b6000613d76600d83614612565b9150613d8182614b30565b602082019050919050565b6000613d99602483614612565b9150613da482614b59565b604082019050919050565b6000613dbc601983614612565b9150613dc782614ba8565b602082019050919050565b6000613ddf602c83614612565b9150613dea82614bd1565b604082019050919050565b6000613e02603883614612565b9150613e0d82614c20565b604082019050919050565b6000613e25602a83614612565b9150613e3082614c6f565b604082019050919050565b6000613e48602983614612565b9150613e5382614cbe565b604082019050919050565b6000613e6b602083614612565b9150613e7682614d0d565b602082019050919050565b6000613e8e602c83614612565b9150613e9982614d36565b604082019050919050565b6000613eb1602c83614612565b9150613ebc82614d85565b604082019050919050565b6000613ed4602083614612565b9150613edf82614dd4565b602082019050919050565b6000613ef7602983614612565b9150613f0282614dfd565b604082019050919050565b6000613f1a602f83614612565b9150613f2582614e4c565b604082019050919050565b6000613f3d601e83614612565b9150613f4882614e9b565b602082019050919050565b6000613f60602183614612565b9150613f6b82614ec4565b604082019050919050565b6000613f83603183614612565b9150613f8e82614f13565b604082019050919050565b6000613fa6602c83614612565b9150613fb182614f62565b604082019050919050565b613fc581614773565b82525050565b613fd481614773565b82525050565b6000613fe68284613cac565b915081905092915050565b6000613ffd8285613cac565b91506140098284613cac565b91508190509392505050565b600060208201905061402a6000830184613b59565b92915050565b60006060820190506140456000830186613b59565b6140526020830185613b59565b61405f6040830184613fcb565b949350505050565b600060808201905061407c6000830187613b59565b6140896020830186613b59565b6140966040830185613fcb565b81810360608301526140a88184613c3a565b905095945050505050565b60006040820190506140c86000830185613b59565b6140d56020830184613fcb565b9392505050565b600060208201905081810360008301526140f68184613bcd565b905092915050565b60006020820190506141136000830184613c2b565b92915050565b600060208201905081810360008301526141338184613c73565b905092915050565b6000602082019050818103600083015261415481613cdd565b9050919050565b6000602082019050818103600083015261417481613d00565b9050919050565b6000602082019050818103600083015261419481613d23565b9050919050565b600060208201905081810360008301526141b481613d46565b9050919050565b600060208201905081810360008301526141d481613d69565b9050919050565b600060208201905081810360008301526141f481613d8c565b9050919050565b6000602082019050818103600083015261421481613daf565b9050919050565b6000602082019050818103600083015261423481613dd2565b9050919050565b6000602082019050818103600083015261425481613df5565b9050919050565b6000602082019050818103600083015261427481613e18565b9050919050565b6000602082019050818103600083015261429481613e3b565b9050919050565b600060208201905081810360008301526142b481613e5e565b9050919050565b600060208201905081810360008301526142d481613e81565b9050919050565b600060208201905081810360008301526142f481613ea4565b9050919050565b6000602082019050818103600083015261431481613ec7565b9050919050565b6000602082019050818103600083015261433481613eea565b9050919050565b6000602082019050818103600083015261435481613f0d565b9050919050565b6000602082019050818103600083015261437481613f30565b9050919050565b6000602082019050818103600083015261439481613f53565b9050919050565b600060208201905081810360008301526143b481613f76565b9050919050565b600060208201905081810360008301526143d481613f99565b9050919050565b60006020820190506143f06000830184613fcb565b92915050565b600060a08201905061440b6000830188613fcb565b6144186020830187613fcb565b818103604083015261442a8186613b68565b90506144396060830185613b59565b6144466080830184613fcb565b9695505050505050565b60006080820190506144656000830187613fcb565b6144726020830186613fcb565b61447f6040830185613c2b565b61448c6060830184613c2b565b95945050505050565b600061449f6144b0565b90506144ab828261480b565b919050565b6000604051905090565b600067ffffffffffffffff8211156144d5576144d46149a1565b5b602082029050602081019050919050565b600067ffffffffffffffff821115614501576145006149a1565b5b602082029050602081019050919050565b600067ffffffffffffffff82111561452d5761452c6149a1565b5b614536826149fc565b9050602081019050919050565b600067ffffffffffffffff82111561455e5761455d6149a1565b5b614567826149fc565b9050602081019050919050565b60008190508160005260206000209050919050565b6000819050602082019050919050565b600081549050919050565b600081519050919050565b600081519050919050565b600081519050919050565b6000600182019050919050565b6000602082019050919050565b600082825260208201905092915050565b600082825260208201905092915050565b600082825260208201905092915050565b600082825260208201905092915050565b600081905092915050565b600061463982614773565b915061464483614773565b9250827fffffffffffffffffffffffffffffffffffffffffffffffffffffffffffffffff03821115614679576146786148b6565b5b828201905092915050565b600061468f82614773565b915061469a83614773565b9250826146aa576146a96148e5565b5b828204905092915050565b60006146c082614773565b91506146cb83614773565b9250828210156146de576146dd6148b6565b5b828203905092915050565b600073ffffffffffffffffffffffffffffffffffffffff82169050919050565b600061471482614753565b9050919050565b60008115159050919050565b60007fffffffff0000000000000000000000000000000000000000000000000000000082169050919050565b600073ffffffffffffffffffffffffffffffffffffffff82169050919050565b6000819050919050565b82818337600083830152505050565b60005b838110156147aa57808201518184015260208101905061478f565b838111156147b9576000848401525b50505050565b600060028204905060018216806147d757607f821691505b602082108114156147eb576147ea614914565b5b50919050565b60006148046147ff83614a0d565b6146e9565b9050919050565b614814826149fc565b810181811067ffffffffffffffff82111715614833576148326149a1565b5b80604052505050565b600061484782614773565b91507fffffffffffffffffffffffffffffffffffffffffffffffffffffffffffffffff82141561487a576148796148b6565b5b600182019050919050565b600061489082614773565b915061489b83614773565b9250826148ab576148aa6148e5565b5b828206905092915050565b7f4e487b7100000000000000000000000000000000000000000000000000000000600052601160045260246000fd5b7f4e487b7100000000000000000000000000000000000000000000000000000000600052601260045260246000fd5b7f4e487b7100000000000000000000000000000000000000000000000000000000600052602260045260246000fd5b7f4e487b7100000000000000000000000000000000000000000000000000000000600052603160045260246000fd5b7f4e487b7100000000000000000000000000000000000000000000000000000000600052603260045260246000fd5b7f4e487b7100000000000000000000000000000000000000000000000000000000600052604160045260246000fd5b60006149dc82546147f1565b9050919050565b600080fd5b600080fd5b600080fd5b600080fd5b600080fd5b6000601f19601f8301169050919050565b60008160001c9050919050565b7f455243373231456e756d657261626c653a206f776e657220696e646578206f7560008201527f74206f6620626f756e6473000000000000000000000000000000000000000000602082015250565b7f4552433732313a207472616e7366657220746f206e6f6e20455243373231526560008201527f63656976657220696d706c656d656e7465720000000000000000000000000000602082015250565b7f4f776e61626c653a206e6577206f776e657220697320746865207a65726f206160008201527f6464726573730000000000000000000000000000000000000000000000000000602082015250565b7f4552433732313a20746f6b656e20616c7265616479206d696e74656400000000600082015250565b7f636f6469676f2065786973747300000000000000000000000000000000000000600082015250565b7f4552433732313a207472616e7366657220746f20746865207a65726f2061646460008201527f7265737300000000000000000000000000000000000000000000000000000000602082015250565b7f4552433732313a20617070726f766520746f2063616c6c657200000000000000600082015250565b7f4552433732313a206f70657261746f7220717565727920666f72206e6f6e657860008201527f697374656e7420746f6b656e0000000000000000000000000000000000000000602082015250565b7f4552433732313a20617070726f76652063616c6c6572206973206e6f74206f7760008201527f6e6572206e6f7220617070726f76656420666f7220616c6c0000000000000000602082015250565b7f4552433732313a2062616c616e636520717565727920666f7220746865207a6560008201527f726f206164647265737300000000000000000000000000000000000000000000602082015250565b7f4552433732313a206f776e657220717565727920666f72206e6f6e657869737460008201527f656e7420746f6b656e0000000000000000000000000000000000000000000000602082015250565b7f4552433732313a206d696e7420746f20746865207a65726f2061646472657373600082015250565b7f4552433732313a20617070726f76656420717565727920666f72206e6f6e657860008201527f697374656e7420746f6b656e0000000000000000000000000000000000000000602082015250565b7f4552433732314d657461646174613a2055524920736574206f66206e6f6e657860008201527f697374656e7420746f6b656e0000000000000000000000000000000000000000602082015250565b7f4f776e61626c653a2063616c6c6572206973206e6f7420746865206f776e6572600082015250565b7f4552433732313a207472616e73666572206f6620746f6b656e2074686174206960008201527f73206e6f74206f776e0000000000000000000000000000000000000000000000602082015250565b7f4552433732314d657461646174613a2055524920717565727920666f72206e6f60008201527f6e6578697374656e7420746f6b656e0000000000000000000000000000000000602082015250565b7f656e746974795265676973746572696e672069736e2774206163746976650000600082015250565b7f4552433732313a20617070726f76616c20746f2063757272656e74206f776e6560008201527f7200000000000000000000000000000000000000000000000000000000000000602082015250565b7f4552433732313a207472616e736665722063616c6c6572206973206e6f74206f60008201527f776e6572206e6f7220617070726f766564000000000000000000000000000000602082015250565b7f455243373231456e756d657261626c653a20676c6f62616c20696e646578206f60008201527f7574206f6620626f756e64730000000000000000000000000000000000000000602082015250565b614fba81614709565b8114614fc557600080fd5b50565b614fd18161471b565b8114614fdc57600080fd5b50565b614fe881614727565b8114614ff357600080fd5b50565b614fff81614773565b811461500a57600080fd5b5056fea264697066735822122023d71c52b4579a7d3e5d4abbc7475be834ff4104010779365ce825f0cc343e7764736f6c63430008060033",
  "immutableReferences": {},
  "source": "// SPDX-License-Identifier: MIT\n// OpenZeppelin Contracts v4.4.1 (utils/introspection/IERC165.sol)\n\npragma solidity ^0.8.0;\n\n/**\n * @dev Interface of the ERC165 standard, as defined in the\n * https://eips.ethereum.org/EIPS/eip-165[EIP].\n *\n * Implementers can declare support of contract interfaces, which can then be\n * queried by others ({ERC165Checker}).\n *\n * For an implementation, see {ERC165}.\n */\ninterface IERC165 {\n    /**\n     * @dev Returns true if this contract implements the interface defined by\n     * `interfaceId`. See the corresponding\n     * https://eips.ethereum.org/EIPS/eip-165#how-interfaces-are-identified[EIP section]\n     * to learn more about how these ids are created.\n     *\n     * This function call must use less than 30 000 gas.\n     */\n    function supportsInterface(bytes4 interfaceId) external view returns (bool);\n}\n\n// File: node_modules\\@openzeppelin\\contracts\\token\\ERC721\\IERC721.sol\n\n\n// OpenZeppelin Contracts v4.4.1 (token/ERC721/IERC721.sol)\n\npragma solidity ^0.8.0;\n\n\n/**\n * @dev Required interface of an ERC721 compliant contract.\n */\ninterface IERC721 is IERC165 {\n    /**\n     * @dev Emitted when `tokenId` token is transferred from `from` to `to`.\n     */\n    event Transfer(address indexed from, address indexed to, uint256 indexed tokenId);\n\n    /**\n     * @dev Emitted when `owner` enables `approved` to manage the `tokenId` token.\n     */\n    event Approval(address indexed owner, address indexed approved, uint256 indexed tokenId);\n\n    /**\n     * @dev Emitted when `owner` enables or disables (`approved`) `operator` to manage all of its assets.\n     */\n    event ApprovalForAll(address indexed owner, address indexed operator, bool approved);\n\n    /**\n     * @dev Returns the number of tokens in ``owner``'s account.\n     */\n    function balanceOf(address owner) external view returns (uint256 balance);\n\n    /**\n     * @dev Returns the owner of the `tokenId` token.\n     *\n     * Requirements:\n     *\n     * - `tokenId` must exist.\n     */\n    function ownerOf(uint256 tokenId) external view returns (address owner);\n\n    /**\n     * @dev Safely transfers `tokenId` token from `from` to `to`, checking first that contract recipients\n     * are aware of the ERC721 protocol to prevent tokens from being forever locked.\n     *\n     * Requirements:\n     *\n     * - `from` cannot be the zero address.\n     * - `to` cannot be the zero address.\n     * - `tokenId` token must exist and be owned by `from`.\n     * - If the caller is not `from`, it must be have been allowed to move this token by either {approve} or {setApprovalForAll}.\n     * - If `to` refers to a smart contract, it must implement {IERC721Receiver-onERC721Received}, which is called upon a safe transfer.\n     *\n     * Emits a {Transfer} event.\n     */\n    function safeTransferFrom(\n        address from,\n        address to,\n        uint256 tokenId\n    ) external;\n\n    /**\n     * @dev Transfers `tokenId` token from `from` to `to`.\n     *\n     * WARNING: Usage of this method is discouraged, use {safeTransferFrom} whenever possible.\n     *\n     * Requirements:\n     *\n     * - `from` cannot be the zero address.\n     * - `to` cannot be the zero address.\n     * - `tokenId` token must be owned by `from`.\n     * - If the caller is not `from`, it must be approved to move this token by either {approve} or {setApprovalForAll}.\n     *\n     * Emits a {Transfer} event.\n     */\n    function transferFrom(\n        address from,\n        address to,\n        uint256 tokenId\n    ) external;\n\n    /**\n     * @dev Gives permission to `to` to transfer `tokenId` token to another account.\n     * The approval is cleared when the token is transferred.\n     *\n     * Only a single account can be approved at a time, so approving the zero address clears previous approvals.\n     *\n     * Requirements:\n     *\n     * - The caller must own the token or be an approved operator.\n     * - `tokenId` must exist.\n     *\n     * Emits an {Approval} event.\n     */\n    function approve(address to, uint256 tokenId) external;\n\n    /**\n     * @dev Returns the account approved for `tokenId` token.\n     *\n     * Requirements:\n     *\n     * - `tokenId` must exist.\n     */\n    function getApproved(uint256 tokenId) external view returns (address operator);\n\n    /**\n     * @dev Approve or remove `operator` as an operator for the caller.\n     * Operators can call {transferFrom} or {safeTransferFrom} for any token owned by the caller.\n     *\n     * Requirements:\n     *\n     * - The `operator` cannot be the caller.\n     *\n     * Emits an {ApprovalForAll} event.\n     */\n    function setApprovalForAll(address operator, bool _approved) external;\n\n    /**\n     * @dev Returns if the `operator` is allowed to manage all of the assets of `owner`.\n     *\n     * See {setApprovalForAll}\n     */\n    function isApprovedForAll(address owner, address operator) external view returns (bool);\n\n    /**\n     * @dev Safely transfers `tokenId` token from `from` to `to`.\n     *\n     * Requirements:\n     *\n     * - `from` cannot be the zero address.\n     * - `to` cannot be the zero address.\n     * - `tokenId` token must exist and be owned by `from`.\n     * - If the caller is not `from`, it must be approved to move this token by either {approve} or {setApprovalForAll}.\n     * - If `to` refers to a smart contract, it must implement {IERC721Receiver-onERC721Received}, which is called upon a safe transfer.\n     *\n     * Emits a {Transfer} event.\n     */\n    function safeTransferFrom(\n        address from,\n        address to,\n        uint256 tokenId,\n        bytes calldata data\n    ) external;\n}\n\n// File: node_modules\\@openzeppelin\\contracts\\token\\ERC721\\IERC721Receiver.sol\n\n\n// OpenZeppelin Contracts v4.4.1 (token/ERC721/IERC721Receiver.sol)\n\npragma solidity ^0.8.0;\n\n/**\n * @title ERC721 token receiver interface\n * @dev Interface for any contract that wants to support safeTransfers\n * from ERC721 asset contracts.\n */\ninterface IERC721Receiver {\n    /**\n     * @dev Whenever an {IERC721} `tokenId` token is transferred to this contract via {IERC721-safeTransferFrom}\n     * by `operator` from `from`, this function is called.\n     *\n     * It must return its Solidity selector to confirm the token transfer.\n     * If any other value is returned or the interface is not implemented by the recipient, the transfer will be reverted.\n     *\n     * The selector can be obtained in Solidity with `IERC721.onERC721Received.selector`.\n     */\n    function onERC721Received(\n        address operator,\n        address from,\n        uint256 tokenId,\n        bytes calldata data\n    ) external returns (bytes4);\n}\n\n// File: node_modules\\@openzeppelin\\contracts\\token\\ERC721\\extensions\\IERC721Metadata.sol\n\n\n// OpenZeppelin Contracts v4.4.1 (token/ERC721/extensions/IERC721Metadata.sol)\n\npragma solidity ^0.8.0;\n\n\n/**\n * @title ERC-721 Non-Fungible Token Standard, optional metadata extension\n * @dev See https://eips.ethereum.org/EIPS/eip-721\n */\ninterface IERC721Metadata is IERC721 {\n    /**\n     * @dev Returns the token collection name.\n     */\n    function name() external view returns (string memory);\n\n    /**\n     * @dev Returns the token collection symbol.\n     */\n    function symbol() external view returns (string memory);\n\n    /**\n     * @dev Returns the Uniform Resource Identifier (URI) for `tokenId` token.\n     */\n    function tokenURI(uint256 tokenId) external view returns (string memory);\n}\n\n// File: node_modules\\@openzeppelin\\contracts\\utils\\Address.sol\n\n\n// OpenZeppelin Contracts v4.4.1 (utils/Address.sol)\n\npragma solidity ^0.8.0;\n\n/**\n * @dev Collection of functions related to the address type\n */\nlibrary Address {\n    /**\n     * @dev Returns true if `account` is a contract.\n     *\n     * [IMPORTANT]\n     * ====\n     * It is unsafe to assume that an address for which this function returns\n     * false is an externally-owned account (EOA) and not a contract.\n     *\n     * Among others, `isContract` will return false for the following\n     * types of addresses:\n     *\n     *  - an externally-owned account\n     *  - a contract in construction\n     *  - an address where a contract will be created\n     *  - an address where a contract lived, but was destroyed\n     * ====\n     */\n    function isContract(address account) internal view returns (bool) {\n        // This method relies on extcodesize, which returns 0 for contracts in\n        // construction, since the code is only stored at the end of the\n        // constructor execution.\n\n        uint256 size;\n        assembly {\n            size := extcodesize(account)\n        }\n        return size > 0;\n    }\n\n    /**\n     * @dev Replacement for Solidity's `transfer`: sends `amount` wei to\n     * `recipient`, forwarding all available gas and reverting on errors.\n     *\n     * https://eips.ethereum.org/EIPS/eip-1884[EIP1884] increases the gas cost\n     * of certain opcodes, possibly making contracts go over the 2300 gas limit\n     * imposed by `transfer`, making them unable to receive funds via\n     * `transfer`. {sendValue} removes this limitation.\n     *\n     * https://diligence.consensys.net/posts/2019/09/stop-using-soliditys-transfer-now/[Learn more].\n     *\n     * IMPORTANT: because control is transferred to `recipient`, care must be\n     * taken to not create reentrancy vulnerabilities. Consider using\n     * {ReentrancyGuard} or the\n     * https://solidity.readthedocs.io/en/v0.5.11/security-considerations.html#use-the-checks-effects-interactions-pattern[checks-effects-interactions pattern].\n     */\n    function sendValue(address payable recipient, uint256 amount) internal {\n        require(address(this).balance >= amount, \"Address: insufficient balance\");\n\n        (bool success, ) = recipient.call{value: amount}(\"\");\n        require(success, \"Address: unable to send value, recipient may have reverted\");\n    }\n\n    /**\n     * @dev Performs a Solidity function call using a low level `call`. A\n     * plain `call` is an unsafe replacement for a function call: use this\n     * function instead.\n     *\n     * If `target` reverts with a revert reason, it is bubbled up by this\n     * function (like regular Solidity function calls).\n     *\n     * Returns the raw returned data. To convert to the expected return value,\n     * use https://solidity.readthedocs.io/en/latest/units-and-global-variables.html?highlight=abi.decode#abi-encoding-and-decoding-functions[`abi.decode`].\n     *\n     * Requirements:\n     *\n     * - `target` must be a contract.\n     * - calling `target` with `data` must not revert.\n     *\n     * _Available since v3.1._\n     */\n    function functionCall(address target, bytes memory data) internal returns (bytes memory) {\n        return functionCall(target, data, \"Address: low-level call failed\");\n    }\n\n    /**\n     * @dev Same as {xref-Address-functionCall-address-bytes-}[`functionCall`], but with\n     * `errorMessage` as a fallback revert reason when `target` reverts.\n     *\n     * _Available since v3.1._\n     */\n    function functionCall(\n        address target,\n        bytes memory data,\n        string memory errorMessage\n    ) internal returns (bytes memory) {\n        return functionCallWithValue(target, data, 0, errorMessage);\n    }\n\n    /**\n     * @dev Same as {xref-Address-functionCall-address-bytes-}[`functionCall`],\n     * but also transferring `value` wei to `target`.\n     *\n     * Requirements:\n     *\n     * - the calling contract must have an ETH balance of at least `value`.\n     * - the called Solidity function must be `payable`.\n     *\n     * _Available since v3.1._\n     */\n    function functionCallWithValue(\n        address target,\n        bytes memory data,\n        uint256 value\n    ) internal returns (bytes memory) {\n        return functionCallWithValue(target, data, value, \"Address: low-level call with value failed\");\n    }\n\n    /**\n     * @dev Same as {xref-Address-functionCallWithValue-address-bytes-uint256-}[`functionCallWithValue`], but\n     * with `errorMessage` as a fallback revert reason when `target` reverts.\n     *\n     * _Available since v3.1._\n     */\n    function functionCallWithValue(\n        address target,\n        bytes memory data,\n        uint256 value,\n        string memory errorMessage\n    ) internal returns (bytes memory) {\n        require(address(this).balance >= value, \"Address: insufficient balance for call\");\n        require(isContract(target), \"Address: call to non-contract\");\n\n        (bool success, bytes memory returndata) = target.call{value: value}(data);\n        return verifyCallResult(success, returndata, errorMessage);\n    }\n\n    /**\n     * @dev Same as {xref-Address-functionCall-address-bytes-}[`functionCall`],\n     * but performing a static call.\n     *\n     * _Available since v3.3._\n     */\n    function functionStaticCall(address target, bytes memory data) internal view returns (bytes memory) {\n        return functionStaticCall(target, data, \"Address: low-level static call failed\");\n    }\n\n    /**\n     * @dev Same as {xref-Address-functionCall-address-bytes-string-}[`functionCall`],\n     * but performing a static call.\n     *\n     * _Available since v3.3._\n     */\n    function functionStaticCall(\n        address target,\n        bytes memory data,\n        string memory errorMessage\n    ) internal view returns (bytes memory) {\n        require(isContract(target), \"Address: static call to non-contract\");\n\n        (bool success, bytes memory returndata) = target.staticcall(data);\n        return verifyCallResult(success, returndata, errorMessage);\n    }\n\n    /**\n     * @dev Same as {xref-Address-functionCall-address-bytes-}[`functionCall`],\n     * but performing a delegate call.\n     *\n     * _Available since v3.4._\n     */\n    function functionDelegateCall(address target, bytes memory data) internal returns (bytes memory) {\n        return functionDelegateCall(target, data, \"Address: low-level delegate call failed\");\n    }\n\n    /**\n     * @dev Same as {xref-Address-functionCall-address-bytes-string-}[`functionCall`],\n     * but performing a delegate call.\n     *\n     * _Available since v3.4._\n     */\n    function functionDelegateCall(\n        address target,\n        bytes memory data,\n        string memory errorMessage\n    ) internal returns (bytes memory) {\n        require(isContract(target), \"Address: delegate call to non-contract\");\n\n        (bool success, bytes memory returndata) = target.delegatecall(data);\n        return verifyCallResult(success, returndata, errorMessage);\n    }\n\n    /**\n     * @dev Tool to verifies that a low level call was successful, and revert if it wasn't, either by bubbling the\n     * revert reason using the provided one.\n     *\n     * _Available since v4.3._\n     */\n    function verifyCallResult(\n        bool success,\n        bytes memory returndata,\n        string memory errorMessage\n    ) internal pure returns (bytes memory) {\n        if (success) {\n            return returndata;\n        } else {\n            // Look for revert reason and bubble it up if present\n            if (returndata.length > 0) {\n                // The easiest way to bubble the revert reason is using memory via assembly\n\n                assembly {\n                    let returndata_size := mload(returndata)\n                    revert(add(32, returndata), returndata_size)\n                }\n            } else {\n                revert(errorMessage);\n            }\n        }\n    }\n}\n\n// File: node_modules\\@openzeppelin\\contracts\\utils\\Context.sol\n\n\n// OpenZeppelin Contracts v4.4.1 (utils/Context.sol)\n\npragma solidity ^0.8.0;\n\n/**\n * @dev Provides information about the current execution context, including the\n * sender of the transaction and its data. While these are generally available\n * via msg.sender and msg.data, they should not be accessed in such a direct\n * manner, since when dealing with meta-transactions the account sending and\n * paying for execution may not be the actual sender (as far as an application\n * is concerned).\n *\n * This contract is only required for intermediate, library-like contracts.\n */\nabstract contract Context {\n    function _msgSender() internal view virtual returns (address) {\n        return msg.sender;\n    }\n\n    function _msgData() internal view virtual returns (bytes calldata) {\n        return msg.data;\n    }\n}\n\n// File: node_modules\\@openzeppelin\\contracts\\utils\\Strings.sol\n\n\n// OpenZeppelin Contracts v4.4.1 (utils/Strings.sol)\n\npragma solidity ^0.8.0;\n\n/**\n * @dev String operations.\n */\nlibrary Strings {\n    bytes16 private constant _HEX_SYMBOLS = \"0123456789abcdef\";\n\n    /**\n     * @dev Converts a `uint256` to its ASCII `string` decimal representation.\n     */\n    function toString(uint256 value) internal pure returns (string memory) {\n        // Inspired by OraclizeAPI's implementation - MIT licence\n        // https://github.com/oraclize/ethereum-api/blob/b42146b063c7d6ee1358846c198246239e9360e8/oraclizeAPI_0.4.25.sol\n\n        if (value == 0) {\n            return \"0\";\n        }\n        uint256 temp = value;\n        uint256 digits;\n        while (temp != 0) {\n            digits++;\n            temp /= 10;\n        }\n        bytes memory buffer = new bytes(digits);\n        while (value != 0) {\n            digits -= 1;\n            buffer[digits] = bytes1(uint8(48 + uint256(value % 10)));\n            value /= 10;\n        }\n        return string(buffer);\n    }\n\n    /**\n     * @dev Converts a `uint256` to its ASCII `string` hexadecimal representation.\n     */\n    function toHexString(uint256 value) internal pure returns (string memory) {\n        if (value == 0) {\n            return \"0x00\";\n        }\n        uint256 temp = value;\n        uint256 length = 0;\n        while (temp != 0) {\n            length++;\n            temp >>= 8;\n        }\n        return toHexString(value, length);\n    }\n\n    /**\n     * @dev Converts a `uint256` to its ASCII `string` hexadecimal representation with fixed length.\n     */\n    function toHexString(uint256 value, uint256 length) internal pure returns (string memory) {\n        bytes memory buffer = new bytes(2 * length + 2);\n        buffer[0] = \"0\";\n        buffer[1] = \"x\";\n        for (uint256 i = 2 * length + 1; i > 1; --i) {\n            buffer[i] = _HEX_SYMBOLS[value & 0xf];\n            value >>= 4;\n        }\n        require(value == 0, \"Strings: hex length insufficient\");\n        return string(buffer);\n    }\n}\n\n// File: node_modules\\@openzeppelin\\contracts\\utils\\introspection\\ERC165.sol\n\n\n// OpenZeppelin Contracts v4.4.1 (utils/introspection/ERC165.sol)\n\npragma solidity ^0.8.0;\n\n\n/**\n * @dev Implementation of the {IERC165} interface.\n *\n * Contracts that want to implement ERC165 should inherit from this contract and override {supportsInterface} to check\n * for the additional interface id that will be supported. For example:\n *\n * ```solidity\n * function supportsInterface(bytes4 interfaceId) public view virtual override returns (bool) {\n *     return interfaceId == type(MyInterface).interfaceId || super.supportsInterface(interfaceId);\n * }\n * ```\n *\n * Alternatively, {ERC165Storage} provides an easier to use but more expensive implementation.\n */\nabstract contract ERC165 is IERC165 {\n    /**\n     * @dev See {IERC165-supportsInterface}.\n     */\n    function supportsInterface(bytes4 interfaceId) public view virtual override returns (bool) {\n        return interfaceId == type(IERC165).interfaceId;\n    }\n}\n\n// File: node_modules\\@openzeppelin\\contracts\\token\\ERC721\\ERC721.sol\n\n\n// OpenZeppelin Contracts v4.4.1 (token/ERC721/ERC721.sol)\n\npragma solidity ^0.8.0;\n\n\n\n\n\n\n\n\n/**\n * @dev Implementation of https://eips.ethereum.org/EIPS/eip-721[ERC721] Non-Fungible Token Standard, including\n * the Metadata extension, but not including the Enumerable extension, which is available separately as\n * {ERC721Enumerable}.\n */\ncontract ERC721 is Context, ERC165, IERC721, IERC721Metadata {\n    using Address for address;\n    using Strings for uint256;\n\n    // Token name\n    string private _name;\n\n    // Token symbol\n    string private _symbol;\n\n    // Mapping from token ID to owner address\n    mapping(uint256 => address) private _owners;\n\n    // Mapping owner address to token count\n    mapping(address => uint256) private _balances;\n\n    // Mapping from token ID to approved address\n    mapping(uint256 => address) private _tokenApprovals;\n\n    // Mapping from owner to operator approvals\n    mapping(address => mapping(address => bool)) private _operatorApprovals;\n\n    /**\n     * @dev Initializes the contract by setting a `name` and a `symbol` to the token collection.\n     */\n    constructor(string memory name_, string memory symbol_) {\n        _name = name_;\n        _symbol = symbol_;\n    }\n\n    /**\n     * @dev See {IERC165-supportsInterface}.\n     */\n    function supportsInterface(bytes4 interfaceId) public view virtual override(ERC165, IERC165) returns (bool) {\n        return\n            interfaceId == type(IERC721).interfaceId ||\n            interfaceId == type(IERC721Metadata).interfaceId ||\n            super.supportsInterface(interfaceId);\n    }\n\n    /**\n     * @dev See {IERC721-balanceOf}.\n     */\n    function balanceOf(address owner) public view virtual override returns (uint256) {\n        require(owner != address(0), \"ERC721: balance query for the zero address\");\n        return _balances[owner];\n    }\n\n    /**\n     * @dev See {IERC721-ownerOf}.\n     */\n    function ownerOf(uint256 tokenId) public view virtual override returns (address) {\n        address owner = _owners[tokenId];\n        require(owner != address(0), \"ERC721: owner query for nonexistent token\");\n        return owner;\n    }\n\n    /**\n     * @dev See {IERC721Metadata-name}.\n     */\n    function name() public view virtual override returns (string memory) {\n        return _name;\n    }\n\n    /**\n     * @dev See {IERC721Metadata-symbol}.\n     */\n    function symbol() public view virtual override returns (string memory) {\n        return _symbol;\n    }\n\n    /**\n     * @dev See {IERC721Metadata-tokenURI}.\n     */\n    function tokenURI(uint256 tokenId) public view virtual override returns (string memory) {\n        require(_exists(tokenId), \"ERC721Metadata: URI query for nonexistent token\");\n\n        string memory baseURI = _baseURI();\n        return bytes(baseURI).length > 0 ? string(abi.encodePacked(baseURI, tokenId.toString())) : \"\";\n    }\n\n    /**\n     * @dev Base URI for computing {tokenURI}. If set, the resulting URI for each\n     * token will be the concatenation of the `baseURI` and the `tokenId`. Empty\n     * by default, can be overriden in child contracts.\n     */\n    function _baseURI() internal view virtual returns (string memory) {\n        return \"\";\n    }\n\n    /**\n     * @dev See {IERC721-approve}.\n     */\n    function approve(address to, uint256 tokenId) public virtual override {\n        address owner = ERC721.ownerOf(tokenId);\n        require(to != owner, \"ERC721: approval to current owner\");\n\n        require(\n            _msgSender() == owner || isApprovedForAll(owner, _msgSender()),\n            \"ERC721: approve caller is not owner nor approved for all\"\n        );\n\n        _approve(to, tokenId);\n    }\n\n    /**\n     * @dev See {IERC721-getApproved}.\n     */\n    function getApproved(uint256 tokenId) public view virtual override returns (address) {\n        require(_exists(tokenId), \"ERC721: approved query for nonexistent token\");\n\n        return _tokenApprovals[tokenId];\n    }\n\n    /**\n     * @dev See {IERC721-setApprovalForAll}.\n     */\n    function setApprovalForAll(address operator, bool approved) public virtual override {\n        _setApprovalForAll(_msgSender(), operator, approved);\n    }\n\n    /**\n     * @dev See {IERC721-isApprovedForAll}.\n     */\n    function isApprovedForAll(address owner, address operator) public view virtual override returns (bool) {\n        return _operatorApprovals[owner][operator];\n    }\n\n    /**\n     * @dev See {IERC721-transferFrom}.\n     */\n    function transferFrom(\n        address from,\n        address to,\n        uint256 tokenId\n    ) public virtual override {\n        //solhint-disable-next-line max-line-length\n        require(_isApprovedOrOwner(_msgSender(), tokenId), \"ERC721: transfer caller is not owner nor approved\");\n\n        _transfer(from, to, tokenId);\n    }\n\n    /**\n     * @dev See {IERC721-safeTransferFrom}.\n     */\n    function safeTransferFrom(\n        address from,\n        address to,\n        uint256 tokenId\n    ) public virtual override {\n        safeTransferFrom(from, to, tokenId, \"\");\n    }\n\n    /**\n     * @dev See {IERC721-safeTransferFrom}.\n     */\n    function safeTransferFrom(\n        address from,\n        address to,\n        uint256 tokenId,\n        bytes memory _data\n    ) public virtual override {\n        require(_isApprovedOrOwner(_msgSender(), tokenId), \"ERC721: transfer caller is not owner nor approved\");\n        _safeTransfer(from, to, tokenId, _data);\n    }\n\n    /**\n     * @dev Safely transfers `tokenId` token from `from` to `to`, checking first that contract recipients\n     * are aware of the ERC721 protocol to prevent tokens from being forever locked.\n     *\n     * `_data` is additional data, it has no specified format and it is sent in call to `to`.\n     *\n     * This internal function is equivalent to {safeTransferFrom}, and can be used to e.g.\n     * implement alternative mechanisms to perform token transfer, such as signature-based.\n     *\n     * Requirements:\n     *\n     * - `from` cannot be the zero address.\n     * - `to` cannot be the zero address.\n     * - `tokenId` token must exist and be owned by `from`.\n     * - If `to` refers to a smart contract, it must implement {IERC721Receiver-onERC721Received}, which is called upon a safe transfer.\n     *\n     * Emits a {Transfer} event.\n     */\n    function _safeTransfer(\n        address from,\n        address to,\n        uint256 tokenId,\n        bytes memory _data\n    ) internal virtual {\n        _transfer(from, to, tokenId);\n        require(_checkOnERC721Received(from, to, tokenId, _data), \"ERC721: transfer to non ERC721Receiver implementer\");\n    }\n\n    /**\n     * @dev Returns whether `tokenId` exists.\n     *\n     * Tokens can be managed by their owner or approved accounts via {approve} or {setApprovalForAll}.\n     *\n     * Tokens start existing when they are minted (`_mint`),\n     * and stop existing when they are burned (`_burn`).\n     */\n    function _exists(uint256 tokenId) internal view virtual returns (bool) {\n        return _owners[tokenId] != address(0);\n    }\n\n    /**\n     * @dev Returns whether `spender` is allowed to manage `tokenId`.\n     *\n     * Requirements:\n     *\n     * - `tokenId` must exist.\n     */\n    function _isApprovedOrOwner(address spender, uint256 tokenId) internal view virtual returns (bool) {\n        require(_exists(tokenId), \"ERC721: operator query for nonexistent token\");\n        address owner = ERC721.ownerOf(tokenId);\n        return (spender == owner || getApproved(tokenId) == spender || isApprovedForAll(owner, spender));\n    }\n\n    /**\n     * @dev Safely mints `tokenId` and transfers it to `to`.\n     *\n     * Requirements:\n     *\n     * - `tokenId` must not exist.\n     * - If `to` refers to a smart contract, it must implement {IERC721Receiver-onERC721Received}, which is called upon a safe transfer.\n     *\n     * Emits a {Transfer} event.\n     */\n    function _safeMint(address to, uint256 tokenId) internal virtual {\n        _safeMint(to, tokenId, \"\");\n    }\n\n    /**\n     * @dev Same as {xref-ERC721-_safeMint-address-uint256-}[`_safeMint`], with an additional `data` parameter which is\n     * forwarded in {IERC721Receiver-onERC721Received} to contract recipients.\n     */\n    function _safeMint(\n        address to,\n        uint256 tokenId,\n        bytes memory _data\n    ) internal virtual {\n        _mint(to, tokenId);\n        require(\n            _checkOnERC721Received(address(0), to, tokenId, _data),\n            \"ERC721: transfer to non ERC721Receiver implementer\"\n        );\n    }\n\n    /**\n     * @dev Mints `tokenId` and transfers it to `to`.\n     *\n     * WARNING: Usage of this method is discouraged, use {_safeMint} whenever possible\n     *\n     * Requirements:\n     *\n     * - `tokenId` must not exist.\n     * - `to` cannot be the zero address.\n     *\n     * Emits a {Transfer} event.\n     */\n    function _mint(address to, uint256 tokenId) internal virtual {\n        require(to != address(0), \"ERC721: mint to the zero address\");\n        require(!_exists(tokenId), \"ERC721: token already minted\");\n\n        _beforeTokenTransfer(address(0), to, tokenId);\n\n        _balances[to] += 1;\n        _owners[tokenId] = to;\n\n        emit Transfer(address(0), to, tokenId);\n    }\n\n    /**\n     * @dev Destroys `tokenId`.\n     * The approval is cleared when the token is burned.\n     *\n     * Requirements:\n     *\n     * - `tokenId` must exist.\n     *\n     * Emits a {Transfer} event.\n     */\n    function _burn(uint256 tokenId) internal virtual {\n        address owner = ERC721.ownerOf(tokenId);\n\n        _beforeTokenTransfer(owner, address(0), tokenId);\n\n        // Clear approvals\n        _approve(address(0), tokenId);\n\n        _balances[owner] -= 1;\n        delete _owners[tokenId];\n\n        emit Transfer(owner, address(0), tokenId);\n    }\n\n    /**\n     * @dev Transfers `tokenId` from `from` to `to`.\n     *  As opposed to {transferFrom}, this imposes no restrictions on msg.sender.\n     *\n     * Requirements:\n     *\n     * - `to` cannot be the zero address.\n     * - `tokenId` token must be owned by `from`.\n     *\n     * Emits a {Transfer} event.\n     */\n    function _transfer(\n        address from,\n        address to,\n        uint256 tokenId\n    ) internal virtual {\n        require(ERC721.ownerOf(tokenId) == from, \"ERC721: transfer of token that is not own\");\n        require(to != address(0), \"ERC721: transfer to the zero address\");\n\n        _beforeTokenTransfer(from, to, tokenId);\n\n        // Clear approvals from the previous owner\n        _approve(address(0), tokenId);\n\n        _balances[from] -= 1;\n        _balances[to] += 1;\n        _owners[tokenId] = to;\n\n        emit Transfer(from, to, tokenId);\n    }\n\n    /**\n     * @dev Approve `to` to operate on `tokenId`\n     *\n     * Emits a {Approval} event.\n     */\n    function _approve(address to, uint256 tokenId) internal virtual {\n        _tokenApprovals[tokenId] = to;\n        emit Approval(ERC721.ownerOf(tokenId), to, tokenId);\n    }\n\n    /**\n     * @dev Approve `operator` to operate on all of `owner` tokens\n     *\n     * Emits a {ApprovalForAll} event.\n     */\n    function _setApprovalForAll(\n        address owner,\n        address operator,\n        bool approved\n    ) internal virtual {\n        require(owner != operator, \"ERC721: approve to caller\");\n        _operatorApprovals[owner][operator] = approved;\n        emit ApprovalForAll(owner, operator, approved);\n    }\n\n    /**\n     * @dev Internal function to invoke {IERC721Receiver-onERC721Received} on a target address.\n     * The call is not executed if the target address is not a contract.\n     *\n     * @param from address representing the previous owner of the given token ID\n     * @param to target address that will receive the tokens\n     * @param tokenId uint256 ID of the token to be transferred\n     * @param _data bytes optional data to send along with the call\n     * @return bool whether the call correctly returned the expected magic value\n     */\n    function _checkOnERC721Received(\n        address from,\n        address to,\n        uint256 tokenId,\n        bytes memory _data\n    ) private returns (bool) {\n        if (to.isContract()) {\n            try IERC721Receiver(to).onERC721Received(_msgSender(), from, tokenId, _data) returns (bytes4 retval) {\n                return retval == IERC721Receiver.onERC721Received.selector;\n            } catch (bytes memory reason) {\n                if (reason.length == 0) {\n                    revert(\"ERC721: transfer to non ERC721Receiver implementer\");\n                } else {\n                    assembly {\n                        revert(add(32, reason), mload(reason))\n                    }\n                }\n            }\n        } else {\n            return true;\n        }\n    }\n\n    /**\n     * @dev Hook that is called before any token transfer. This includes minting\n     * and burning.\n     *\n     * Calling conditions:\n     *\n     * - When `from` and `to` are both non-zero, ``from``'s `tokenId` will be\n     * transferred to `to`.\n     * - When `from` is zero, `tokenId` will be minted for `to`.\n     * - When `to` is zero, ``from``'s `tokenId` will be burned.\n     * - `from` and `to` are never both zero.\n     *\n     * To learn more about hooks, head to xref:ROOT:extending-contracts.adoc#using-hooks[Using Hooks].\n     */\n    function _beforeTokenTransfer(\n        address from,\n        address to,\n        uint256 tokenId\n    ) internal virtual {}\n}\n\n// File: node_modules\\@openzeppelin\\contracts\\token\\ERC721\\extensions\\IERC721Enumerable.sol\n\n\n// OpenZeppelin Contracts v4.4.1 (token/ERC721/extensions/IERC721Enumerable.sol)\n\npragma solidity ^0.8.0;\n\n\n/**\n * @title ERC-721 Non-Fungible Token Standard, optional enumeration extension\n * @dev See https://eips.ethereum.org/EIPS/eip-721\n */\ninterface IERC721Enumerable is IERC721 {\n    /**\n     * @dev Returns the total amount of tokens stored by the contract.\n     */\n    function totalSupply() external view returns (uint256);\n\n    /**\n     * @dev Returns a token ID owned by `owner` at a given `index` of its token list.\n     * Use along with {balanceOf} to enumerate all of ``owner``'s tokens.\n     */\n    function tokenOfOwnerByIndex(address owner, uint256 index) external view returns (uint256 tokenId);\n\n    /**\n     * @dev Returns a token ID at a given `index` of all the tokens stored by the contract.\n     * Use along with {totalSupply} to enumerate all tokens.\n     */\n    function tokenByIndex(uint256 index) external view returns (uint256);\n}\n\n// File: @openzeppelin\\contracts\\token\\ERC721\\extensions\\ERC721Enumerable.sol\n\n\n// OpenZeppelin Contracts v4.4.1 (token/ERC721/extensions/ERC721Enumerable.sol)\n\npragma solidity ^0.8.0;\n\n\n\n/**\n * @dev This implements an optional extension of {ERC721} defined in the EIP that adds\n * enumerability of all the token ids in the contract as well as all token ids owned by each\n * account.\n */\nabstract contract ERC721Enumerable is ERC721, IERC721Enumerable {\n    // Mapping from owner to list of owned token IDs\n    mapping(address => mapping(uint256 => uint256)) private _ownedTokens;\n\n    // Mapping from token ID to index of the owner tokens list\n    mapping(uint256 => uint256) private _ownedTokensIndex;\n\n    // Array with all token ids, used for enumeration\n    uint256[] private _allTokens;\n\n    // Mapping from token id to position in the allTokens array\n    mapping(uint256 => uint256) private _allTokensIndex;\n\n    /**\n     * @dev See {IERC165-supportsInterface}.\n     */\n    function supportsInterface(bytes4 interfaceId) public view virtual override(IERC165, ERC721) returns (bool) {\n        return interfaceId == type(IERC721Enumerable).interfaceId || super.supportsInterface(interfaceId);\n    }\n\n    /**\n     * @dev See {IERC721Enumerable-tokenOfOwnerByIndex}.\n     */\n    function tokenOfOwnerByIndex(address owner, uint256 index) public view virtual override returns (uint256) {\n        require(index < ERC721.balanceOf(owner), \"ERC721Enumerable: owner index out of bounds\");\n        return _ownedTokens[owner][index];\n    }\n\n    /**\n     * @dev See {IERC721Enumerable-totalSupply}.\n     */\n    function totalSupply() public view virtual override returns (uint256) {\n        return _allTokens.length;\n    }\n\n    /**\n     * @dev See {IERC721Enumerable-tokenByIndex}.\n     */\n    function tokenByIndex(uint256 index) public view virtual override returns (uint256) {\n        require(index < ERC721Enumerable.totalSupply(), \"ERC721Enumerable: global index out of bounds\");\n        return _allTokens[index];\n    }\n\n    /**\n     * @dev Hook that is called before any token transfer. This includes minting\n     * and burning.\n     *\n     * Calling conditions:\n     *\n     * - When `from` and `to` are both non-zero, ``from``'s `tokenId` will be\n     * transferred to `to`.\n     * - When `from` is zero, `tokenId` will be minted for `to`.\n     * - When `to` is zero, ``from``'s `tokenId` will be burned.\n     * - `from` cannot be the zero address.\n     * - `to` cannot be the zero address.\n     *\n     * To learn more about hooks, head to xref:ROOT:extending-contracts.adoc#using-hooks[Using Hooks].\n     */\n    function _beforeTokenTransfer(\n        address from,\n        address to,\n        uint256 tokenId\n    ) internal virtual override {\n        super._beforeTokenTransfer(from, to, tokenId);\n\n        if (from == address(0)) {\n            _addTokenToAllTokensEnumeration(tokenId);\n        } else if (from != to) {\n            _removeTokenFromOwnerEnumeration(from, tokenId);\n        }\n        if (to == address(0)) {\n            _removeTokenFromAllTokensEnumeration(tokenId);\n        } else if (to != from) {\n            _addTokenToOwnerEnumeration(to, tokenId);\n        }\n    }\n\n    /**\n     * @dev Private function to add a token to this extension's ownership-tracking data structures.\n     * @param to address representing the new owner of the given token ID\n     * @param tokenId uint256 ID of the token to be added to the tokens list of the given address\n     */\n    function _addTokenToOwnerEnumeration(address to, uint256 tokenId) private {\n        uint256 length = ERC721.balanceOf(to);\n        _ownedTokens[to][length] = tokenId;\n        _ownedTokensIndex[tokenId] = length;\n    }\n\n    /**\n     * @dev Private function to add a token to this extension's token tracking data structures.\n     * @param tokenId uint256 ID of the token to be added to the tokens list\n     */\n    function _addTokenToAllTokensEnumeration(uint256 tokenId) private {\n        _allTokensIndex[tokenId] = _allTokens.length;\n        _allTokens.push(tokenId);\n    }\n\n    /**\n     * @dev Private function to remove a token from this extension's ownership-tracking data structures. Note that\n     * while the token is not assigned a new owner, the `_ownedTokensIndex` mapping is _not_ updated: this allows for\n     * gas optimizations e.g. when performing a transfer operation (avoiding double writes).\n     * This has O(1) time complexity, but alters the order of the _ownedTokens array.\n     * @param from address representing the previous owner of the given token ID\n     * @param tokenId uint256 ID of the token to be removed from the tokens list of the given address\n     */\n    function _removeTokenFromOwnerEnumeration(address from, uint256 tokenId) private {\n        // To prevent a gap in from's tokens array, we store the last token in the index of the token to delete, and\n        // then delete the last slot (swap and pop).\n\n        uint256 lastTokenIndex = ERC721.balanceOf(from) - 1;\n        uint256 tokenIndex = _ownedTokensIndex[tokenId];\n\n        // When the token to delete is the last token, the swap operation is unnecessary\n        if (tokenIndex != lastTokenIndex) {\n            uint256 lastTokenId = _ownedTokens[from][lastTokenIndex];\n\n            _ownedTokens[from][tokenIndex] = lastTokenId; // Move the last token to the slot of the to-delete token\n            _ownedTokensIndex[lastTokenId] = tokenIndex; // Update the moved token's index\n        }\n\n        // This also deletes the contents at the last position of the array\n        delete _ownedTokensIndex[tokenId];\n        delete _ownedTokens[from][lastTokenIndex];\n    }\n\n    /**\n     * @dev Private function to remove a token from this extension's token tracking data structures.\n     * This has O(1) time complexity, but alters the order of the _allTokens array.\n     * @param tokenId uint256 ID of the token to be removed from the tokens list\n     */\n    function _removeTokenFromAllTokensEnumeration(uint256 tokenId) private {\n        // To prevent a gap in the tokens array, we store the last token in the index of the token to delete, and\n        // then delete the last slot (swap and pop).\n\n        uint256 lastTokenIndex = _allTokens.length - 1;\n        uint256 tokenIndex = _allTokensIndex[tokenId];\n\n        // When the token to delete is the last token, the swap operation is unnecessary. However, since this occurs so\n        // rarely (when the last minted token is burnt) that we still do the swap here to avoid the gas cost of adding\n        // an 'if' statement (like in _removeTokenFromOwnerEnumeration)\n        uint256 lastTokenId = _allTokens[lastTokenIndex];\n\n        _allTokens[tokenIndex] = lastTokenId; // Move the last token to the slot of the to-delete token\n        _allTokensIndex[lastTokenId] = tokenIndex; // Update the moved token's index\n\n        // This also deletes the contents at the last position of the array\n        delete _allTokensIndex[tokenId];\n        _allTokens.pop();\n    }\n}\n\n// File: @openzeppelin\\contracts\\access\\Ownable.sol\n\n\n// OpenZeppelin Contracts v4.4.1 (access/Ownable.sol)\n\npragma solidity ^0.8.0;\n\n\n/**\n * @dev Contract module which provides a basic access control mechanism, where\n * there is an account (an owner) that can be granted exclusive access to\n * specific functions.\n *\n * By default, the owner account will be the one that deploys the contract. This\n * can later be changed with {transferOwnership}.\n *\n * This module is used through inheritance. It will make available the modifier\n * `onlyOwner`, which can be applied to your functions to restrict their use to\n * the owner.\n */\nabstract contract Ownable is Context {\n    address private _owner;\n\n    event OwnershipTransferred(address indexed previousOwner, address indexed newOwner);\n\n    /**\n     * @dev Initializes the contract setting the deployer as the initial owner.\n     */\n    constructor() {\n        _transferOwnership(_msgSender());\n    }\n\n    /**\n     * @dev Returns the address of the current owner.\n     */\n    function owner() public view virtual returns (address) {\n        return _owner;\n    }\n\n    /**\n     * @dev Throws if called by any account other than the owner.\n     */\n    modifier onlyOwner() {\n        require(owner() == _msgSender(), \"Ownable: caller is not the owner\");\n        _;\n    }\n\n    /**\n     * @dev Leaves the contract without owner. It will not be possible to call\n     * `onlyOwner` functions anymore. Can only be called by the current owner.\n     *\n     * NOTE: Renouncing ownership will leave the contract without an owner,\n     * thereby removing any functionality that is only available to the owner.\n     */\n    function renounceOwnership() public virtual onlyOwner {\n        _transferOwnership(address(0));\n    }\n\n    /**\n     * @dev Transfers ownership of the contract to a new account (`newOwner`).\n     * Can only be called by the current owner.\n     */\n    function transferOwnership(address newOwner) public virtual onlyOwner {\n        require(newOwner != address(0), \"Ownable: new owner is the zero address\");\n        _transferOwnership(newOwner);\n    }\n\n    /**\n     * @dev Transfers ownership of the contract to a new account (`newOwner`).\n     * Internal function without access restriction.\n     */\n    function _transferOwnership(address newOwner) internal virtual {\n        address oldOwner = _owner;\n        _owner = newOwner;\n        emit OwnershipTransferred(oldOwner, newOwner);\n    }\n}\n\n// File: examples\\WarNFTDemo.sol\n\n\npragma solidity >=0.8.6;\n\n\n\ninterface IERC20 {\n    event Approval(\n        address indexed owner,\n        address indexed spender,\n        uint256 value\n    );\n    event Transfer(address indexed from, address indexed to, uint256 value);\n\n    function name() external view returns (string memory);\n\n    function symbol() external view returns (string memory);\n\n    function decimals() external view returns (uint8);\n\n    function totalSupply() external view returns (uint256);\n\n    function balanceOf(address owner) external view returns (uint256);\n\n    function allowance(address owner, address spender)\n        external\n        view\n        returns (uint256);\n\n    function approve(address spender, uint256 value) external returns (bool);\n\n    function transfer(address to, uint256 value) external returns (bool);\n\n    function transferFrom(\n        address from,\n        address to,\n        uint256 value\n    ) external returns (bool);\n}\n\ninterface Router {\n    function WETH() external pure returns (address);\n\n    function swapTokensForExactTokens(\n        uint256 amountOut,\n        uint256 amountInMax,\n        address[] calldata path,\n        address to,\n        uint256 deadline\n    ) external returns (uint256[] memory amounts);\n}\n\ncontract WarNFTDemo is ERC721Enumerable, Ownable {\n    using Address for address;\n\n    address private constant ROUTER =\n        0x9Ac64Cc6e4415144C455BD8E4837Fea55603e5c3;\n\n    uint256 public counter = 0;\n\n    // Price of each token\n    uint256 public price = 1000000; //USDC\n    address public to = 0x549AC9b1957010dC1971364f20B9eFb7c90cf58A;\n\n    address[] public path = [\n        0x8a9424745056Eb399FD19a0EC26A14316684e274,\n        0x7ef95a0FEE0Dd31b22626fA2e10Ee6A223F8a684\n    ];\n\n    struct Peat {\n        uint256 id;\n        uint256 createdAt;\n        bool statusOwner;\n        bool status;\n    }\n\n    // mapping CodPets\n    mapping(string => Peat) public codPets;\n    mapping(uint256 => string) public filiationPets;\n    mapping(uint256 => string) private ownerPets;\n    mapping(uint256 => string) private hcPets;\n    mapping(uint256 => string) private backgroundPets;\n\n    // Base URI\n    string private _baseURIextended = \"https://ipfs.io/ipfs/\";\n\n    // List of addresses Registering entity\n    mapping(address => bool) public entityRegistering;\n\n    constructor() ERC721(\"Firulaix\", \"PETS\") {}\n\n    function _baseURI() internal view virtual override returns (string memory) {\n        return _baseURIextended;\n    }\n\n    // See which address owns which tokens\n    function tokensOfOwner(address _address)\n        public\n        view\n        returns (uint256[] memory)\n    {\n        uint256 tokenCount = balanceOf(_address);\n        uint256[] memory tokensId = new uint256[](tokenCount);\n        for (uint256 i; i < tokenCount; i++) {\n            tokensId[i] = tokenOfOwnerByIndex(_address, i);\n        }\n        return tokensId;\n    }\n\n    function getOwnner(uint256 _tokenId) public view returns (string memory) {\n        bool _status = entityRegistering[msg.sender];\n        require(\n            _exists(_tokenId),\n            \"ERC721Metadata: URI set of nonexistent token\"\n        );\n        require(_status, \"entityRegistering isn't active\");\n\n        return ownerPets[_tokenId];\n    }\n\n    // WRITTER\n    function mintToken(\n        string memory _codPets,\n        string memory _filiationPets,\n        string memory _ownerPets,\n        bool _ownerStatus,\n        uint _amountOut,\n        uint amountInMax\n    ) public {\n        bool _status = entityRegistering[msg.sender];\n        uint256 exist_cod = codPets[_codPets].id;\n        require(_status, \"entityRegistering isn't active\");\n        require(exist_cod == 0, \"codigo exists\");\n\n        swapTokensForExactTokens(_amountOut,amountInMax);\n        _safeMint(msg.sender, counter);\n        _setCodPets(counter, _codPets, _ownerStatus);\n        setFiliationPets(counter, _filiationPets);\n        setOwnerPets(counter, _ownerPets);\n        counter++;\n    }\n\n    function swapTokensForExactTokens(uint256 _amountOut, uint256 amountInMax) private {\n        IERC20(path[0]).transferFrom(msg.sender, address(this), _amountOut);\n        IERC20(path[0]).approve(ROUTER, _amountOut);\n        Router(ROUTER).swapTokensForExactTokens(\n            price,\n            amountInMax,\n            path,\n            to,\n            block.timestamp\n        );\n    }\n\n    function _setCodPets(\n        uint256 _tokenId,\n        string memory _cod,\n        bool _ownerStatus\n    ) public {\n        bool _status = entityRegistering[msg.sender];\n        require(\n            _exists(_tokenId),\n            \"ERC721Metadata: URI set of nonexistent token\"\n        );\n        require(_status, \"entityRegistering isn't active\");\n        codPets[_cod] = Peat(_tokenId, block.timestamp, _ownerStatus, true);\n    }\n\n    function setFiliationPets(uint256 _tokenId, string memory _filiationPets)\n        public\n    {\n        bool _status = entityRegistering[msg.sender];\n        require(\n            _exists(_tokenId),\n            \"ERC721Metadata: URI set of nonexistent token\"\n        );\n        require(_status, \"entityRegistering isn't active\");\n        filiationPets[_tokenId] = _filiationPets;\n    }\n\n    function setOwnerPets(uint256 _tokenId, string memory _ownerPets) public {\n        bool _status = entityRegistering[msg.sender];\n        require(\n            _exists(_tokenId),\n            \"ERC721Metadata: URI set of nonexistent token\"\n        );\n        require(_status, \"entityRegistering isn't active\");\n        ownerPets[_tokenId] = _ownerPets;\n    }\n\n    // create/edit entityRegistering\n    function editEntityRegistering(address _address) public onlyOwner {\n        entityRegistering[_address] = !entityRegistering[_address];\n    }\n\n    // Set a different price\n    function setPrice(uint256 _price) public onlyOwner {\n        price = _price;\n    }\n\n    // Set a different price\n    function setPath(address[] memory _path) public onlyOwner {\n        path[0] = _path[0];\n        path[1] = _path[1];\n    }\n\n    function setTo(address _to) public onlyOwner {\n        to = _to;\n    }\n\n    function setBaseURI(string memory baseURI_) external onlyOwner {\n        _baseURIextended = baseURI_;\n    }\n}\n",
  "sourcePath": "D:\\Project\\truffle-Contracts\\contracts\\WarNFTDemoPublish.sol",
  "compiler": {
    "name": "solc",
    "version": "0.8.6+commit.11564f7e.Emscripten.clang"
  },
  "schemaVersion": "3.4.4",
  "updatedAt": "2022-03-01T16:24:41.564Z",
  "devdoc": {
    "kind": "dev",
    "methods": {
      "approve(address,uint256)": {
        "details": "See {IERC721-approve}."
      },
      "balanceOf(address)": {
        "details": "See {IERC721-balanceOf}."
      },
      "getApproved(uint256)": {
        "details": "See {IERC721-getApproved}."
      },
      "isApprovedForAll(address,address)": {
        "details": "See {IERC721-isApprovedForAll}."
      },
      "name()": {
        "details": "See {IERC721Metadata-name}."
      },
      "owner()": {
        "details": "Returns the address of the current owner."
      },
      "ownerOf(uint256)": {
        "details": "See {IERC721-ownerOf}."
      },
      "renounceOwnership()": {
        "details": "Leaves the contract without owner. It will not be possible to call `onlyOwner` functions anymore. Can only be called by the current owner. NOTE: Renouncing ownership will leave the contract without an owner, thereby removing any functionality that is only available to the owner."
      },
      "safeTransferFrom(address,address,uint256)": {
        "details": "See {IERC721-safeTransferFrom}."
      },
      "safeTransferFrom(address,address,uint256,bytes)": {
        "details": "See {IERC721-safeTransferFrom}."
      },
      "setApprovalForAll(address,bool)": {
        "details": "See {IERC721-setApprovalForAll}."
      },
      "supportsInterface(bytes4)": {
        "details": "See {IERC165-supportsInterface}."
      },
      "symbol()": {
        "details": "See {IERC721Metadata-symbol}."
      },
      "tokenByIndex(uint256)": {
        "details": "See {IERC721Enumerable-tokenByIndex}."
      },
      "tokenOfOwnerByIndex(address,uint256)": {
        "details": "See {IERC721Enumerable-tokenOfOwnerByIndex}."
      },
      "tokenURI(uint256)": {
        "details": "See {IERC721Metadata-tokenURI}."
      },
      "totalSupply()": {
        "details": "See {IERC721Enumerable-totalSupply}."
      },
      "transferFrom(address,address,uint256)": {
        "details": "See {IERC721-transferFrom}."
      },
      "transferOwnership(address)": {
        "details": "Transfers ownership of the contract to a new account (`newOwner`). Can only be called by the current owner."
      }
    },
    "version": 1
  },
  "userdoc": {
    "kind": "user",
    "methods": {},
    "version": 1
  }
}